{
  "address": "0x2d7AF3213a987ed02F2C5388FBD972217eA3f2F5",
  "abi": [
    {
      "inputs": [
        {
          "internalType": "string",
          "name": "tokenName",
          "type": "string"
        },
        {
          "internalType": "string",
          "name": "tokenSymbol",
          "type": "string"
        },
        {
          "internalType": "uint256",
          "name": "mintFee",
          "type": "uint256"
        },
        {
          "internalType": "uint256",
          "name": "maxSupply",
          "type": "uint256"
        }
      ],
      "stateMutability": "nonpayable",
      "type": "constructor"
    },
    {
      "inputs": [],
      "name": "ChainBattles__MaxSupplyReached",
      "type": "error"
    },
    {
      "inputs": [],
      "name": "ChainBattles__NotApprovedOrOwner",
      "type": "error"
    },
    {
      "inputs": [],
      "name": "ChainBattles__NotEnoughETHSent",
      "type": "error"
    },
    {
      "inputs": [],
      "name": "ChainBattles__TokenIDNotExists",
      "type": "error"
    },
    {
      "inputs": [],
      "name": "ChainBattles__WithdrawFailed",
      "type": "error"
    },
    {
      "anonymous": false,
      "inputs": [
        {
          "indexed": true,
          "internalType": "address",
          "name": "owner",
          "type": "address"
        },
        {
          "indexed": true,
          "internalType": "address",
          "name": "approved",
          "type": "address"
        },
        {
          "indexed": true,
          "internalType": "uint256",
          "name": "tokenId",
          "type": "uint256"
        }
      ],
      "name": "Approval",
      "type": "event"
    },
    {
      "anonymous": false,
      "inputs": [
        {
          "indexed": true,
          "internalType": "address",
          "name": "owner",
          "type": "address"
        },
        {
          "indexed": true,
          "internalType": "address",
          "name": "operator",
          "type": "address"
        },
        {
          "indexed": false,
          "internalType": "bool",
          "name": "approved",
          "type": "bool"
        }
      ],
      "name": "ApprovalForAll",
      "type": "event"
    },
    {
      "anonymous": false,
      "inputs": [
        {
          "indexed": true,
          "internalType": "uint256",
          "name": "tokenId",
          "type": "uint256"
        }
      ],
      "name": "MintedNft",
      "type": "event"
    },
    {
      "anonymous": false,
      "inputs": [
        {
          "indexed": true,
          "internalType": "address",
          "name": "previousOwner",
          "type": "address"
        },
        {
          "indexed": true,
          "internalType": "address",
          "name": "newOwner",
          "type": "address"
        }
      ],
      "name": "OwnershipTransferred",
      "type": "event"
    },
    {
      "anonymous": false,
      "inputs": [
        {
          "indexed": true,
          "internalType": "uint256",
          "name": "tokenId",
          "type": "uint256"
        },
        {
          "indexed": false,
          "internalType": "uint256",
          "name": "level",
          "type": "uint256"
        }
      ],
      "name": "TrainedNft",
      "type": "event"
    },
    {
      "anonymous": false,
      "inputs": [
        {
          "indexed": true,
          "internalType": "address",
          "name": "from",
          "type": "address"
        },
        {
          "indexed": true,
          "internalType": "address",
          "name": "to",
          "type": "address"
        },
        {
          "indexed": true,
          "internalType": "uint256",
          "name": "tokenId",
          "type": "uint256"
        }
      ],
      "name": "Transfer",
      "type": "event"
    },
    {
      "inputs": [
        {
          "internalType": "address",
          "name": "to",
          "type": "address"
        },
        {
          "internalType": "uint256",
          "name": "tokenId",
          "type": "uint256"
        }
      ],
      "name": "approve",
      "outputs": [],
      "stateMutability": "nonpayable",
      "type": "function"
    },
    {
      "inputs": [
        {
          "internalType": "address",
          "name": "owner",
          "type": "address"
        }
      ],
      "name": "balanceOf",
      "outputs": [
        {
          "internalType": "uint256",
          "name": "",
          "type": "uint256"
        }
      ],
      "stateMutability": "view",
      "type": "function"
    },
    {
      "inputs": [
        {
          "internalType": "uint256",
          "name": "tokenId",
          "type": "uint256"
        }
      ],
      "name": "getApproved",
      "outputs": [
        {
          "internalType": "address",
          "name": "",
          "type": "address"
        }
      ],
      "stateMutability": "view",
      "type": "function"
    },
    {
      "inputs": [],
      "name": "getMaxSupply",
      "outputs": [
        {
          "internalType": "uint256",
          "name": "",
          "type": "uint256"
        }
      ],
      "stateMutability": "view",
      "type": "function"
    },
    {
      "inputs": [],
      "name": "getMintFee",
      "outputs": [
        {
          "internalType": "uint256",
          "name": "",
          "type": "uint256"
        }
      ],
      "stateMutability": "view",
      "type": "function"
    },
    {
      "inputs": [],
      "name": "getMinted",
      "outputs": [
        {
          "internalType": "uint256",
          "name": "",
          "type": "uint256"
        }
      ],
      "stateMutability": "view",
      "type": "function"
    },
    {
      "inputs": [
        {
          "internalType": "uint256",
          "name": "tokenId",
          "type": "uint256"
        }
      ],
      "name": "getTokenIdToLevels",
      "outputs": [
        {
          "internalType": "uint256",
          "name": "",
          "type": "uint256"
        }
      ],
      "stateMutability": "view",
      "type": "function"
    },
    {
      "inputs": [],
      "name": "getWithdrawalAddress",
      "outputs": [
        {
          "internalType": "address",
          "name": "",
          "type": "address"
        }
      ],
      "stateMutability": "view",
      "type": "function"
    },
    {
      "inputs": [
        {
          "internalType": "address",
          "name": "owner",
          "type": "address"
        },
        {
          "internalType": "address",
          "name": "operator",
          "type": "address"
        }
      ],
      "name": "isApprovedForAll",
      "outputs": [
        {
          "internalType": "bool",
          "name": "",
          "type": "bool"
        }
      ],
      "stateMutability": "view",
      "type": "function"
    },
    {
      "inputs": [],
      "name": "mint",
      "outputs": [],
      "stateMutability": "payable",
      "type": "function"
    },
    {
      "inputs": [],
      "name": "name",
      "outputs": [
        {
          "internalType": "string",
          "name": "",
          "type": "string"
        }
      ],
      "stateMutability": "view",
      "type": "function"
    },
    {
      "inputs": [],
      "name": "owner",
      "outputs": [
        {
          "internalType": "address",
          "name": "",
          "type": "address"
        }
      ],
      "stateMutability": "view",
      "type": "function"
    },
    {
      "inputs": [
        {
          "internalType": "uint256",
          "name": "tokenId",
          "type": "uint256"
        }
      ],
      "name": "ownerOf",
      "outputs": [
        {
          "internalType": "address",
          "name": "",
          "type": "address"
        }
      ],
      "stateMutability": "view",
      "type": "function"
    },
    {
      "inputs": [],
      "name": "renounceOwnership",
      "outputs": [],
      "stateMutability": "nonpayable",
      "type": "function"
    },
    {
      "inputs": [
        {
          "internalType": "address",
          "name": "from",
          "type": "address"
        },
        {
          "internalType": "address",
          "name": "to",
          "type": "address"
        },
        {
          "internalType": "uint256",
          "name": "tokenId",
          "type": "uint256"
        }
      ],
      "name": "safeTransferFrom",
      "outputs": [],
      "stateMutability": "nonpayable",
      "type": "function"
    },
    {
      "inputs": [
        {
          "internalType": "address",
          "name": "from",
          "type": "address"
        },
        {
          "internalType": "address",
          "name": "to",
          "type": "address"
        },
        {
          "internalType": "uint256",
          "name": "tokenId",
          "type": "uint256"
        },
        {
          "internalType": "bytes",
          "name": "data",
          "type": "bytes"
        }
      ],
      "name": "safeTransferFrom",
      "outputs": [],
      "stateMutability": "nonpayable",
      "type": "function"
    },
    {
      "inputs": [
        {
          "internalType": "address",
          "name": "operator",
          "type": "address"
        },
        {
          "internalType": "bool",
          "name": "approved",
          "type": "bool"
        }
      ],
      "name": "setApprovalForAll",
      "outputs": [],
      "stateMutability": "nonpayable",
      "type": "function"
    },
    {
      "inputs": [
        {
          "internalType": "address",
          "name": "newOwner",
          "type": "address"
        }
      ],
      "name": "setWithdrawalAddress",
      "outputs": [],
      "stateMutability": "nonpayable",
      "type": "function"
    },
    {
      "inputs": [
        {
          "internalType": "bytes4",
          "name": "interfaceId",
          "type": "bytes4"
        }
      ],
      "name": "supportsInterface",
      "outputs": [
        {
          "internalType": "bool",
          "name": "",
          "type": "bool"
        }
      ],
      "stateMutability": "view",
      "type": "function"
    },
    {
      "inputs": [],
      "name": "symbol",
      "outputs": [
        {
          "internalType": "string",
          "name": "",
          "type": "string"
        }
      ],
      "stateMutability": "view",
      "type": "function"
    },
    {
      "inputs": [
        {
          "internalType": "uint256",
          "name": "tokenId",
          "type": "uint256"
        }
      ],
      "name": "tokenURI",
      "outputs": [
        {
          "internalType": "string",
          "name": "",
          "type": "string"
        }
      ],
      "stateMutability": "view",
      "type": "function"
    },
    {
      "inputs": [
        {
          "internalType": "uint256",
          "name": "tokenId",
          "type": "uint256"
        }
      ],
      "name": "train",
      "outputs": [],
      "stateMutability": "nonpayable",
      "type": "function"
    },
    {
      "inputs": [
        {
          "internalType": "address",
          "name": "from",
          "type": "address"
        },
        {
          "internalType": "address",
          "name": "to",
          "type": "address"
        },
        {
          "internalType": "uint256",
          "name": "tokenId",
          "type": "uint256"
        }
      ],
      "name": "transferFrom",
      "outputs": [],
      "stateMutability": "nonpayable",
      "type": "function"
    },
    {
      "inputs": [
        {
          "internalType": "address",
          "name": "newOwner",
          "type": "address"
        }
      ],
      "name": "transferOwnership",
      "outputs": [],
      "stateMutability": "nonpayable",
      "type": "function"
    },
    {
      "inputs": [],
      "name": "withdraw",
      "outputs": [],
      "stateMutability": "nonpayable",
      "type": "function"
    }
  ],
  "transactionHash": "0x2758baee58488ea12ab14fddfc1b23a12193f0589c9c6435925430dca2b0a036",
  "args": [
    "Chain Battles",
    "CBTLS",
    "0",
    5
  ],
  "numDeployments": 5,
  "solcInputHash": "ade3e901c84420bba139cfc61d472969",
  "bytecode": "0x60c06040523480156200001157600080fd5b5060405162004286380380620042868339818101604052810190620000379190620002fb565b8383816000908051906020019062000051929190620001b6565b5080600190805190602001906200006a929190620001b6565b5050506200008d62000081620000e860201b60201c565b620000f060201b60201c565b81608081815250508060a0818152505033600860006101000a81548173ffffffffffffffffffffffffffffffffffffffff021916908373ffffffffffffffffffffffffffffffffffffffff1602179055505050505062000553565b600033905090565b6000600760009054906101000a900473ffffffffffffffffffffffffffffffffffffffff16905081600760006101000a81548173ffffffffffffffffffffffffffffffffffffffff021916908373ffffffffffffffffffffffffffffffffffffffff1602179055508173ffffffffffffffffffffffffffffffffffffffff168173ffffffffffffffffffffffffffffffffffffffff167f8be0079c531659141344cd1fd0a4f28419497f9722a3daafe3b4186f6b6457e060405160405180910390a35050565b828054620001c4906200044a565b90600052602060002090601f016020900481019282620001e8576000855562000234565b82601f106200020357805160ff191683800117855562000234565b8280016001018555821562000234579182015b828111156200023357825182559160200191906001019062000216565b5b50905062000243919062000247565b5090565b5b808211156200026257600081600090555060010162000248565b5090565b60006200027d6200027784620003d4565b620003ab565b9050828152602081018484840111156200029c576200029b62000519565b5b620002a984828562000414565b509392505050565b600082601f830112620002c957620002c862000514565b5b8151620002db84826020860162000266565b91505092915050565b600081519050620002f58162000539565b92915050565b6000806000806080858703121562000318576200031762000523565b5b600085015167ffffffffffffffff8111156200033957620003386200051e565b5b6200034787828801620002b1565b945050602085015167ffffffffffffffff8111156200036b576200036a6200051e565b5b6200037987828801620002b1565b93505060406200038c87828801620002e4565b92505060606200039f87828801620002e4565b91505092959194509250565b6000620003b7620003ca565b9050620003c5828262000480565b919050565b6000604051905090565b600067ffffffffffffffff821115620003f257620003f1620004e5565b5b620003fd8262000528565b9050602081019050919050565b6000819050919050565b60005b838110156200043457808201518184015260208101905062000417565b8381111562000444576000848401525b50505050565b600060028204905060018216806200046357607f821691505b602082108114156200047a5762000479620004b6565b5b50919050565b6200048b8262000528565b810181811067ffffffffffffffff82111715620004ad57620004ac620004e5565b5b80604052505050565b7f4e487b7100000000000000000000000000000000000000000000000000000000600052602260045260246000fd5b7f4e487b7100000000000000000000000000000000000000000000000000000000600052604160045260246000fd5b600080fd5b600080fd5b600080fd5b600080fd5b6000601f19601f8301169050919050565b62000544816200040a565b81146200055057600080fd5b50565b60805160a051613cff62000587600039600081816108f10152610c7e0152600081816108970152610e240152613cff6000f3fe6080604052600436106101665760003560e01c806370a08231116100d1578063a22cb4651161008a578063c87b56dd11610064578063c87b56dd146104f5578063e985e9c514610532578063ec8f3fa51461056f578063f2fde38b1461059a57610166565b8063a22cb46514610478578063ac72200d146104a1578063b88d4fde146104cc57610166565b806370a0823114610366578063715018a6146103a35780637a5caab3146103ba5780638da5cb5b146103e557806395d89b4114610410578063967ea1f41461043b57610166565b806323b872dd1161012357806323b872dd1461026c578063368004ed146102955780633ccfd60b146102be57806342842e0e146102d55780634c0f38c2146102fe5780636352211e1461032957610166565b806301ffc9a71461016b57806306fdde03146101a8578063081812fc146101d3578063095ea7b3146102105780631249c58b1461023957806321b8092e14610243575b600080fd5b34801561017757600080fd5b50610192600480360381019061018d91906125ea565b6105c3565b60405161019f9190612d9e565b60405180910390f35b3480156101b457600080fd5b506101bd6106a5565b6040516101ca9190612db9565b60405180910390f35b3480156101df57600080fd5b506101fa60048036038101906101f59190612644565b610737565b6040516102079190612d37565b60405180910390f35b34801561021c57600080fd5b50610237600480360381019061023291906125aa565b61077d565b005b610241610895565b005b34801561024f57600080fd5b5061026a60048036038101906102659190612427565b6109cf565b005b34801561027857600080fd5b50610293600480360381019061028e9190612494565b610a1b565b005b3480156102a157600080fd5b506102bc60048036038101906102b79190612644565b610a7b565b005b3480156102ca57600080fd5b506102d3610b84565b005b3480156102e157600080fd5b506102fc60048036038101906102f79190612494565b610c5a565b005b34801561030a57600080fd5b50610313610c7a565b6040516103209190612f9b565b60405180910390f35b34801561033557600080fd5b50610350600480360381019061034b9190612644565b610ca2565b60405161035d9190612d37565b60405180910390f35b34801561037257600080fd5b5061038d60048036038101906103889190612427565b610d54565b60405161039a9190612f9b565b60405180910390f35b3480156103af57600080fd5b506103b8610e0c565b005b3480156103c657600080fd5b506103cf610e20565b6040516103dc9190612f9b565b60405180910390f35b3480156103f157600080fd5b506103fa610e48565b6040516104079190612d37565b60405180910390f35b34801561041c57600080fd5b50610425610e72565b6040516104329190612db9565b60405180910390f35b34801561044757600080fd5b50610462600480360381019061045d9190612644565b610f04565b60405161046f9190612f9b565b60405180910390f35b34801561048457600080fd5b5061049f600480360381019061049a919061256a565b610f21565b005b3480156104ad57600080fd5b506104b6610f37565b6040516104c39190612f9b565b60405180910390f35b3480156104d857600080fd5b506104f360048036038101906104ee91906124e7565b610f48565b005b34801561050157600080fd5b5061051c60048036038101906105179190612644565b610faa565b6040516105299190612db9565b60405180910390f35b34801561053e57600080fd5b5061055960048036038101906105549190612454565b6110bd565b6040516105669190612d9e565b60405180910390f35b34801561057b57600080fd5b50610584611151565b6040516105919190612d37565b60405180910390f35b3480156105a657600080fd5b506105c160048036038101906105bc9190612427565b61117b565b005b60007f80ac58cd000000000000000000000000000000000000000000000000000000007bffffffffffffffffffffffffffffffffffffffffffffffffffffffff1916827bffffffffffffffffffffffffffffffffffffffffffffffffffffffff1916148061068e57507f5b5e139f000000000000000000000000000000000000000000000000000000007bffffffffffffffffffffffffffffffffffffffffffffffffffffffff1916827bffffffffffffffffffffffffffffffffffffffffffffffffffffffff1916145b8061069e575061069d826111ff565b5b9050919050565b6060600080546106b490613225565b80601f01602080910402602001604051908101604052809291908181526020018280546106e090613225565b801561072d5780601f106107025761010080835404028352916020019161072d565b820191906000526020600020905b81548152906001019060200180831161071057829003601f168201915b5050505050905090565b600061074282611269565b6004600083815260200190815260200160002060009054906101000a900473ffffffffffffffffffffffffffffffffffffffff169050919050565b600061078882610ca2565b90508073ffffffffffffffffffffffffffffffffffffffff168373ffffffffffffffffffffffffffffffffffffffff1614156107f9576040517f08c379a00000000000000000000000000000000000000000000000000000000081526004016107f090612f5b565b60405180910390fd5b8073ffffffffffffffffffffffffffffffffffffffff166108186112b4565b73ffffffffffffffffffffffffffffffffffffffff1614806108475750610846816108416112b4565b6110bd565b5b610886576040517f08c379a000000000000000000000000000000000000000000000000000000000815260040161087d90612edb565b60405180910390fd5b61089083836112bc565b505050565b7f00000000000000000000000000000000000000000000000000000000000000003410156108ef576040517f7b1329d100000000000000000000000000000000000000000000000000000000815260040160405180910390fd5b7f000000000000000000000000000000000000000000000000000000000000000061091a6009611375565b1415610952576040517fc9f79eed00000000000000000000000000000000000000000000000000000000815260040160405180910390fd5b61095c6009611383565b60006109686009611375565b90506109743382611399565b6000600a60008381526020019081526020016000208190555061099f8161099a836113b7565b61141f565b807fd4136d39a3898eaf9b7b4498f616ad832198c51b321cdf8be4fac22d68801f7e60405160405180910390a250565b6109d7611493565b80600860006101000a81548173ffffffffffffffffffffffffffffffffffffffff021916908373ffffffffffffffffffffffffffffffffffffffff16021790555050565b610a2c610a266112b4565b82611511565b610a6b576040517f08c379a0000000000000000000000000000000000000000000000000000000008152600401610a6290612f7b565b60405180910390fd5b610a768383836115a6565b505050565b610a848161180d565b610aba576040517fe05557f500000000000000000000000000000000000000000000000000000000815260040160405180910390fd5b610ac43382611511565b610afa576040517f1f8472db00000000000000000000000000000000000000000000000000000000815260040160405180910390fd5b60006001600a600084815260200190815260200160002054610b1c919061305a565b905080600a600084815260200190815260200160002081905550610b4882610b43846113b7565b61141f565b817fb861c8ce54f6aae45f6f53fb989a9d7efd429ac4b8f6faee9879cf8a07a4c2b682604051610b789190612f9b565b60405180910390a25050565b610b8c611493565b60004790506000600860009054906101000a900473ffffffffffffffffffffffffffffffffffffffff1673ffffffffffffffffffffffffffffffffffffffff1682604051610bd990612d00565b60006040518083038185875af1925050503d8060008114610c16576040519150601f19603f3d011682016040523d82523d6000602084013e610c1b565b606091505b5050905080610c56576040517f7d771dc500000000000000000000000000000000000000000000000000000000815260040160405180910390fd5b5050565b610c7583838360405180602001604052806000815250610f48565b505050565b60007f0000000000000000000000000000000000000000000000000000000000000000905090565b6000806002600084815260200190815260200160002060009054906101000a900473ffffffffffffffffffffffffffffffffffffffff169050600073ffffffffffffffffffffffffffffffffffffffff168173ffffffffffffffffffffffffffffffffffffffff161415610d4b576040517f08c379a0000000000000000000000000000000000000000000000000000000008152600401610d4290612f3b565b60405180910390fd5b80915050919050565b60008073ffffffffffffffffffffffffffffffffffffffff168273ffffffffffffffffffffffffffffffffffffffff161415610dc5576040517f08c379a0000000000000000000000000000000000000000000000000000000008152600401610dbc90612e9b565b60405180910390fd5b600360008373ffffffffffffffffffffffffffffffffffffffff1673ffffffffffffffffffffffffffffffffffffffff168152602001908152602001600020549050919050565b610e14611493565b610e1e6000611879565b565b60007f0000000000000000000000000000000000000000000000000000000000000000905090565b6000600760009054906101000a900473ffffffffffffffffffffffffffffffffffffffff16905090565b606060018054610e8190613225565b80601f0160208091040260200160405190810160405280929190818152602001828054610ead90613225565b8015610efa5780601f10610ecf57610100808354040283529160200191610efa565b820191906000526020600020905b815481529060010190602001808311610edd57829003601f168201915b5050505050905090565b6000600a6000838152602001908152602001600020549050919050565b610f33610f2c6112b4565b838361193f565b5050565b6000610f436009611375565b905090565b610f59610f536112b4565b83611511565b610f98576040517f08c379a0000000000000000000000000000000000000000000000000000000008152600401610f8f90612f7b565b60405180910390fd5b610fa484848484611aac565b50505050565b6060610fb582611269565b6000600660008481526020019081526020016000208054610fd590613225565b80601f016020809104026020016040519081016040528092919081815260200182805461100190613225565b801561104e5780601f106110235761010080835404028352916020019161104e565b820191906000526020600020905b81548152906001019060200180831161103157829003601f168201915b50505050509050600061105f611b08565b90506000815114156110755781925050506110b8565b6000825111156110aa578082604051602001611092929190612bc4565b604051602081830303815290604052925050506110b8565b6110b384611b1f565b925050505b919050565b6000600560008473ffffffffffffffffffffffffffffffffffffffff1673ffffffffffffffffffffffffffffffffffffffff16815260200190815260200160002060008373ffffffffffffffffffffffffffffffffffffffff1673ffffffffffffffffffffffffffffffffffffffff16815260200190815260200160002060009054906101000a900460ff16905092915050565b6000600860009054906101000a900473ffffffffffffffffffffffffffffffffffffffff16905090565b611183611493565b600073ffffffffffffffffffffffffffffffffffffffff168173ffffffffffffffffffffffffffffffffffffffff1614156111f3576040517f08c379a00000000000000000000000000000000000000000000000000000000081526004016111ea90612dfb565b60405180910390fd5b6111fc81611879565b50565b60007f01ffc9a7000000000000000000000000000000000000000000000000000000007bffffffffffffffffffffffffffffffffffffffffffffffffffffffff1916827bffffffffffffffffffffffffffffffffffffffffffffffffffffffff1916149050919050565b6112728161180d565b6112b1576040517f08c379a00000000000000000000000000000000000000000000000000000000081526004016112a890612f3b565b60405180910390fd5b50565b600033905090565b816004600083815260200190815260200160002060006101000a81548173ffffffffffffffffffffffffffffffffffffffff021916908373ffffffffffffffffffffffffffffffffffffffff160217905550808273ffffffffffffffffffffffffffffffffffffffff1661132f83610ca2565b73ffffffffffffffffffffffffffffffffffffffff167f8c5be1e5ebec7d5bd14f71427d1e84f3dd0314c0f7b2291e5b200ac8c7c3b92560405160405180910390a45050565b600081600001549050919050565b6001816000016000828254019250508190555050565b6113b3828260405180602001604052806000815250611b87565b5050565b606060006113c483611be2565b6113cd84611d43565b6040516020016113de929190612c6d565b60405160208183030381529060405290506113f881611da9565b6040516020016114089190612cde565b604051602081830303815290604052915050919050565b6114288261180d565b611467576040517f08c379a000000000000000000000000000000000000000000000000000000000815260040161145e90612ebb565b60405180910390fd5b8060066000848152602001908152602001600020908051906020019061148e9291906122ab565b505050565b61149b6112b4565b73ffffffffffffffffffffffffffffffffffffffff166114b9610e48565b73ffffffffffffffffffffffffffffffffffffffff161461150f576040517f08c379a000000000000000000000000000000000000000000000000000000000815260040161150690612f1b565b60405180910390fd5b565b60008061151d83610ca2565b90508073ffffffffffffffffffffffffffffffffffffffff168473ffffffffffffffffffffffffffffffffffffffff16148061155f575061155e81856110bd565b5b8061159d57508373ffffffffffffffffffffffffffffffffffffffff1661158584610737565b73ffffffffffffffffffffffffffffffffffffffff16145b91505092915050565b8273ffffffffffffffffffffffffffffffffffffffff166115c682610ca2565b73ffffffffffffffffffffffffffffffffffffffff161461161c576040517f08c379a000000000000000000000000000000000000000000000000000000000815260040161161390612e1b565b60405180910390fd5b600073ffffffffffffffffffffffffffffffffffffffff168273ffffffffffffffffffffffffffffffffffffffff16141561168c576040517f08c379a000000000000000000000000000000000000000000000000000000000815260040161168390612e5b565b60405180910390fd5b611697838383611f0d565b6116a26000826112bc565b6001600360008573ffffffffffffffffffffffffffffffffffffffff1673ffffffffffffffffffffffffffffffffffffffff16815260200190815260200160002060008282546116f2919061313b565b925050819055506001600360008473ffffffffffffffffffffffffffffffffffffffff1673ffffffffffffffffffffffffffffffffffffffff1681526020019081526020016000206000828254611749919061305a565b92505081905550816002600083815260200190815260200160002060006101000a81548173ffffffffffffffffffffffffffffffffffffffff021916908373ffffffffffffffffffffffffffffffffffffffff160217905550808273ffffffffffffffffffffffffffffffffffffffff168473ffffffffffffffffffffffffffffffffffffffff167fddf252ad1be2c89b69c2b068fc378daa952ba7f163c4a11628f55a4df523b3ef60405160405180910390a4611808838383611f12565b505050565b60008073ffffffffffffffffffffffffffffffffffffffff166002600084815260200190815260200160002060009054906101000a900473ffffffffffffffffffffffffffffffffffffffff1673ffffffffffffffffffffffffffffffffffffffff1614159050919050565b6000600760009054906101000a900473ffffffffffffffffffffffffffffffffffffffff16905081600760006101000a81548173ffffffffffffffffffffffffffffffffffffffff021916908373ffffffffffffffffffffffffffffffffffffffff1602179055508173ffffffffffffffffffffffffffffffffffffffff168173ffffffffffffffffffffffffffffffffffffffff167f8be0079c531659141344cd1fd0a4f28419497f9722a3daafe3b4186f6b6457e060405160405180910390a35050565b8173ffffffffffffffffffffffffffffffffffffffff168373ffffffffffffffffffffffffffffffffffffffff1614156119ae576040517f08c379a00000000000000000000000000000000000000000000000000000000081526004016119a590612e7b565b60405180910390fd5b80600560008573ffffffffffffffffffffffffffffffffffffffff1673ffffffffffffffffffffffffffffffffffffffff16815260200190815260200160002060008473ffffffffffffffffffffffffffffffffffffffff1673ffffffffffffffffffffffffffffffffffffffff16815260200190815260200160002060006101000a81548160ff0219169083151502179055508173ffffffffffffffffffffffffffffffffffffffff168373ffffffffffffffffffffffffffffffffffffffff167f17307eab39ab6107e8899845ad3d59bd9653f200f220920489ca2b5937696c3183604051611a9f9190612d9e565b60405180910390a3505050565b611ab78484846115a6565b611ac384848484611f17565b611b02576040517f08c379a0000000000000000000000000000000000000000000000000000000008152600401611af990612ddb565b60405180910390fd5b50505050565b606060405180602001604052806000815250905090565b6060611b2a82611269565b6000611b34611b08565b90506000815111611b545760405180602001604052806000815250611b7f565b80611b5e84611be2565b604051602001611b6f929190612bc4565b6040516020818303038152906040525b915050919050565b611b9183836120ae565b611b9e6000848484611f17565b611bdd576040517f08c379a0000000000000000000000000000000000000000000000000000000008152600401611bd490612ddb565b60405180910390fd5b505050565b60606000821415611c2a576040518060400160405280600181526020017f30000000000000000000000000000000000000000000000000000000000000008152509050611d3e565b600082905060005b60008214611c5c578080611c4590613288565b915050600a82611c5591906130b0565b9150611c32565b60008167ffffffffffffffff811115611c7857611c776133be565b5b6040519080825280601f01601f191660200182016040528015611caa5781602001600182028036833780820191505090505b5090505b60008514611d3757600182611cc3919061313b565b9150600a85611cd291906132d1565b6030611cde919061305a565b60f81b818381518110611cf457611cf361338f565b5b60200101907effffffffffffffffffffffffffffffffffffffffffffffffffffffffffffff1916908160001a905350600a85611d3091906130b0565b9450611cae565b8093505050505b919050565b60606000611d58611d5384610f04565b611be2565b604051602001611d689190612be8565b6040516020818303038152906040529050611d8281611da9565b604051602001611d929190612d15565b604051602081830303815290604052915050919050565b6060600082511415611dcc57604051806020016040528060008152509050611f08565b6000604051806060016040528060408152602001613c8a6040913990506000600360028551611dfb919061305a565b611e0591906130b0565b6004611e1191906130e1565b67ffffffffffffffff811115611e2a57611e296133be565b5b6040519080825280601f01601f191660200182016040528015611e5c5781602001600182028036833780820191505090505b509050600182016020820185865187015b80821015611ec8576003820191508151603f8160121c168501518453600184019350603f81600c1c168501518453600184019350603f8160061c168501518453600184019350603f8116850151845360018401935050611e6d565b5050600386510660018114611ee45760028114611ef757611eff565b603d6001830353603d6002830353611eff565b603d60018303535b50505080925050505b919050565b505050565b505050565b6000611f388473ffffffffffffffffffffffffffffffffffffffff16612288565b156120a1578373ffffffffffffffffffffffffffffffffffffffff1663150b7a02611f616112b4565b8786866040518563ffffffff1660e01b8152600401611f839493929190612d52565b602060405180830381600087803b158015611f9d57600080fd5b505af1925050508015611fce57506040513d601f19601f82011682018060405250810190611fcb9190612617565b60015b612051573d8060008114611ffe576040519150601f19603f3d011682016040523d82523d6000602084013e612003565b606091505b50600081511415612049576040517f08c379a000000000000000000000000000000000000000000000000000000000815260040161204090612ddb565b60405180910390fd5b805181602001fd5b63150b7a0260e01b7bffffffffffffffffffffffffffffffffffffffffffffffffffffffff1916817bffffffffffffffffffffffffffffffffffffffffffffffffffffffff1916149150506120a6565b600190505b949350505050565b600073ffffffffffffffffffffffffffffffffffffffff168273ffffffffffffffffffffffffffffffffffffffff16141561211e576040517f08c379a000000000000000000000000000000000000000000000000000000000815260040161211590612efb565b60405180910390fd5b6121278161180d565b15612167576040517f08c379a000000000000000000000000000000000000000000000000000000000815260040161215e90612e3b565b60405180910390fd5b61217360008383611f0d565b6001600360008473ffffffffffffffffffffffffffffffffffffffff1673ffffffffffffffffffffffffffffffffffffffff16815260200190815260200160002060008282546121c3919061305a565b92505081905550816002600083815260200190815260200160002060006101000a81548173ffffffffffffffffffffffffffffffffffffffff021916908373ffffffffffffffffffffffffffffffffffffffff160217905550808273ffffffffffffffffffffffffffffffffffffffff16600073ffffffffffffffffffffffffffffffffffffffff167fddf252ad1be2c89b69c2b068fc378daa952ba7f163c4a11628f55a4df523b3ef60405160405180910390a461228460008383611f12565b5050565b6000808273ffffffffffffffffffffffffffffffffffffffff163b119050919050565b8280546122b790613225565b90600052602060002090601f0160209004810192826122d95760008555612320565b82601f106122f257805160ff1916838001178555612320565b82800160010185558215612320579182015b8281111561231f578251825591602001919060010190612304565b5b50905061232d9190612331565b5090565b5b8082111561234a576000816000905550600101612332565b5090565b600061236161235c84612fdb565b612fb6565b90508281526020810184848401111561237d5761237c6133f2565b5b6123888482856131e3565b509392505050565b60008135905061239f81613c2d565b92915050565b6000813590506123b481613c44565b92915050565b6000813590506123c981613c5b565b92915050565b6000815190506123de81613c5b565b92915050565b600082601f8301126123f9576123f86133ed565b5b813561240984826020860161234e565b91505092915050565b60008135905061242181613c72565b92915050565b60006020828403121561243d5761243c6133fc565b5b600061244b84828501612390565b91505092915050565b6000806040838503121561246b5761246a6133fc565b5b600061247985828601612390565b925050602061248a85828601612390565b9150509250929050565b6000806000606084860312156124ad576124ac6133fc565b5b60006124bb86828701612390565b93505060206124cc86828701612390565b92505060406124dd86828701612412565b9150509250925092565b60008060008060808587031215612501576125006133fc565b5b600061250f87828801612390565b945050602061252087828801612390565b935050604061253187828801612412565b925050606085013567ffffffffffffffff811115612552576125516133f7565b5b61255e878288016123e4565b91505092959194509250565b60008060408385031215612581576125806133fc565b5b600061258f85828601612390565b92505060206125a0858286016123a5565b9150509250929050565b600080604083850312156125c1576125c06133fc565b5b60006125cf85828601612390565b92505060206125e085828601612412565b9150509250929050565b600060208284031215612600576125ff6133fc565b5b600061260e848285016123ba565b91505092915050565b60006020828403121561262d5761262c6133fc565b5b600061263b848285016123cf565b91505092915050565b60006020828403121561265a576126596133fc565b5b600061266884828501612412565b91505092915050565b61267a8161316f565b82525050565b61268981613181565b82525050565b600061269a8261300c565b6126a48185613022565b93506126b48185602086016131f2565b6126bd81613401565b840191505092915050565b60006126d382613017565b6126dd818561303e565b93506126ed8185602086016131f2565b6126f681613401565b840191505092915050565b600061270c82613017565b612716818561304f565b93506127268185602086016131f2565b80840191505092915050565b600061273f60228361304f565b915061274a82613412565b602282019050919050565b600061276260328361303e565b915061276d82613461565b604082019050919050565b600061278560268361303e565b9150612790826134b0565b604082019050919050565b60006127a860028361304f565b91506127b3826134ff565b600282019050919050565b60006127cb60258361303e565b91506127d682613528565b604082019050919050565b60006127ee601c8361303e565b91506127f982613577565b602082019050919050565b600061281160308361304f565b915061281c826135a0565b603082019050919050565b600061283460628361304f565b915061283f826135ef565b606282019050919050565b600061285760188361304f565b91506128628261368a565b601882019050919050565b600061287a60088361304f565b9150612885826136b3565b600882019050919050565b600061289d60248361303e565b91506128a8826136dc565b604082019050919050565b60006128c060198361303e565b91506128cb8261372b565b602082019050919050565b60006128e360538361304f565b91506128ee82613754565b605382019050919050565b600061290660298361303e565b9150612911826137c9565b604082019050919050565b600061292960018361304f565b915061293482613818565b600182019050919050565b600061294c602e8361303e565b915061295782613841565b604082019050919050565b600061296f60078361304f565b915061297a82613890565b600782019050919050565b600061299260078361304f565b915061299d826138b9565b600782019050919050565b60006129b5603e8361303e565b91506129c0826138e2565b604082019050919050565b60006129d860208361303e565b91506129e382613931565b602082019050919050565b60006129fb60018361304f565b9150612a068261395a565b600182019050919050565b6000612a1e60208361303e565b9150612a2982613983565b602082019050919050565b6000612a4160018361304f565b9150612a4c826139ac565b600182019050919050565b6000612a6460188361303e565b9150612a6f826139d5565b602082019050919050565b6000612a8760218361303e565b9150612a92826139fe565b604082019050919050565b6000612aaa604a8361304f565b9150612ab582613a4d565b604a82019050919050565b6000612acd601d8361304f565b9150612ad882613ac2565b601d82019050919050565b6000612af060538361304f565b9150612afb82613aeb565b605382019050919050565b6000612b13600083613033565b9150612b1e82613b60565b600082019050919050565b6000612b36600a8361304f565b9150612b4182613b63565b600a82019050919050565b6000612b59602e8361303e565b9150612b6482613b8c565b604082019050919050565b6000612b7c60068361304f565b9150612b8782613bdb565b600682019050919050565b6000612b9f601a8361304f565b9150612baa82613c04565b601a82019050919050565b612bbe816131d9565b82525050565b6000612bd08285612701565b9150612bdc8284612701565b91508190509392505050565b6000612bf382612827565b9150612bfe82612a9d565b9150612c0982612804565b9150612c14826128d6565b9150612c1f82612962565b9150612c2a82612985565b9150612c3582612ae3565b9150612c408261286d565b9150612c4c8284612701565b9150612c5782612985565b9150612c6282612b6f565b915081905092915050565b6000612c7882612a34565b9150612c838261284a565b9150612c8f8285612701565b9150612c9a8261279b565b9150612ca582612732565b9150612cb082612b29565b9150612cbc8284612701565b9150612cc78261291c565b9150612cd2826129ee565b91508190509392505050565b6000612ce982612ac0565b9150612cf58284612701565b915081905092915050565b6000612d0b82612b06565b9150819050919050565b6000612d2082612b92565b9150612d2c8284612701565b915081905092915050565b6000602082019050612d4c6000830184612671565b92915050565b6000608082019050612d676000830187612671565b612d746020830186612671565b612d816040830185612bb5565b8181036060830152612d93818461268f565b905095945050505050565b6000602082019050612db36000830184612680565b92915050565b60006020820190508181036000830152612dd381846126c8565b905092915050565b60006020820190508181036000830152612df481612755565b9050919050565b60006020820190508181036000830152612e1481612778565b9050919050565b60006020820190508181036000830152612e34816127be565b9050919050565b60006020820190508181036000830152612e54816127e1565b9050919050565b60006020820190508181036000830152612e7481612890565b9050919050565b60006020820190508181036000830152612e94816128b3565b9050919050565b60006020820190508181036000830152612eb4816128f9565b9050919050565b60006020820190508181036000830152612ed48161293f565b9050919050565b60006020820190508181036000830152612ef4816129a8565b9050919050565b60006020820190508181036000830152612f14816129cb565b9050919050565b60006020820190508181036000830152612f3481612a11565b9050919050565b60006020820190508181036000830152612f5481612a57565b9050919050565b60006020820190508181036000830152612f7481612a7a565b9050919050565b60006020820190508181036000830152612f9481612b4c565b9050919050565b6000602082019050612fb06000830184612bb5565b92915050565b6000612fc0612fd1565b9050612fcc8282613257565b919050565b6000604051905090565b600067ffffffffffffffff821115612ff657612ff56133be565b5b612fff82613401565b9050602081019050919050565b600081519050919050565b600081519050919050565b600082825260208201905092915050565b600081905092915050565b600082825260208201905092915050565b600081905092915050565b6000613065826131d9565b9150613070836131d9565b9250827fffffffffffffffffffffffffffffffffffffffffffffffffffffffffffffffff038211156130a5576130a4613302565b5b828201905092915050565b60006130bb826131d9565b91506130c6836131d9565b9250826130d6576130d5613331565b5b828204905092915050565b60006130ec826131d9565b91506130f7836131d9565b9250817fffffffffffffffffffffffffffffffffffffffffffffffffffffffffffffffff04831182151516156131305761312f613302565b5b828202905092915050565b6000613146826131d9565b9150613151836131d9565b92508282101561316457613163613302565b5b828203905092915050565b600061317a826131b9565b9050919050565b60008115159050919050565b60007fffffffff0000000000000000000000000000000000000000000000000000000082169050919050565b600073ffffffffffffffffffffffffffffffffffffffff82169050919050565b6000819050919050565b82818337600083830152505050565b60005b838110156132105780820151818401526020810190506131f5565b8381111561321f576000848401525b50505050565b6000600282049050600182168061323d57607f821691505b6020821081141561325157613250613360565b5b50919050565b61326082613401565b810181811067ffffffffffffffff8211171561327f5761327e6133be565b5b80604052505050565b6000613293826131d9565b91507fffffffffffffffffffffffffffffffffffffffffffffffffffffffffffffffff8214156132c6576132c5613302565b5b600182019050919050565b60006132dc826131d9565b91506132e7836131d9565b9250826132f7576132f6613331565b5b828206905092915050565b7f4e487b7100000000000000000000000000000000000000000000000000000000600052601160045260246000fd5b7f4e487b7100000000000000000000000000000000000000000000000000000000600052601260045260246000fd5b7f4e487b7100000000000000000000000000000000000000000000000000000000600052602260045260246000fd5b7f4e487b7100000000000000000000000000000000000000000000000000000000600052603260045260246000fd5b7f4e487b7100000000000000000000000000000000000000000000000000000000600052604160045260246000fd5b600080fd5b600080fd5b600080fd5b600080fd5b6000601f19601f8301169050919050565b7f226465736372697074696f6e223a2022426174746c6573206f6e20636861696e60008201527f222c000000000000000000000000000000000000000000000000000000000000602082015250565b7f4552433732313a207472616e7366657220746f206e6f6e20455243373231526560008201527f63656976657220696d706c656d656e7465720000000000000000000000000000602082015250565b7f4f776e61626c653a206e6577206f776e657220697320746865207a65726f206160008201527f6464726573730000000000000000000000000000000000000000000000000000602082015250565b7f222c000000000000000000000000000000000000000000000000000000000000600082015250565b7f4552433732313a207472616e736665722066726f6d20696e636f72726563742060008201527f6f776e6572000000000000000000000000000000000000000000000000000000602082015250565b7f4552433732313a20746f6b656e20616c7265616479206d696e74656400000000600082015250565b7f3c726563742077696474683d223130302522206865696768743d22313030252260008201527f2066696c6c3d22626c61636b22202f3e00000000000000000000000000000000602082015250565b7f3c73766720786d6c6e733d22687474703a2f2f7777772e77332e6f72672f323060008201527f30302f73766722207072657365727665417370656374526174696f3d22784d6960208201527f6e594d696e206d656574222076696577426f783d22302030203335302033353060408201527f223e000000000000000000000000000000000000000000000000000000000000606082015250565b7f226e616d65223a2022436861696e20426174746c657320230000000000000000600082015250565b7f4c6576656c733a20000000000000000000000000000000000000000000000000600082015250565b7f4552433732313a207472616e7366657220746f20746865207a65726f2061646460008201527f7265737300000000000000000000000000000000000000000000000000000000602082015250565b7f4552433732313a20617070726f766520746f2063616c6c657200000000000000600082015250565b7f3c7465787420783d223530252220793d223430252220636c6173733d2262617360008201527f652220646f6d696e616e742d626173656c696e653d226d6964646c652220746560208201527f78742d616e63686f723d226d6964646c65223e00000000000000000000000000604082015250565b7f4552433732313a2061646472657373207a65726f206973206e6f74206120766160008201527f6c6964206f776e65720000000000000000000000000000000000000000000000602082015250565b7f2200000000000000000000000000000000000000000000000000000000000000600082015250565b7f45524337323155524953746f726167653a2055524920736574206f66206e6f6e60008201527f6578697374656e7420746f6b656e000000000000000000000000000000000000602082015250565b7f57617272696f7200000000000000000000000000000000000000000000000000600082015250565b7f3c2f746578743e00000000000000000000000000000000000000000000000000600082015250565b7f4552433732313a20617070726f76652063616c6c6572206973206e6f7420746f60008201527f6b656e206f776e6572206e6f7220617070726f76656420666f7220616c6c0000602082015250565b7f4552433732313a206d696e7420746f20746865207a65726f2061646472657373600082015250565b7f7d00000000000000000000000000000000000000000000000000000000000000600082015250565b7f4f776e61626c653a2063616c6c6572206973206e6f7420746865206f776e6572600082015250565b7f7b00000000000000000000000000000000000000000000000000000000000000600082015250565b7f4552433732313a20696e76616c696420746f6b656e2049440000000000000000600082015250565b7f4552433732313a20617070726f76616c20746f2063757272656e74206f776e6560008201527f7200000000000000000000000000000000000000000000000000000000000000602082015250565b7f3c7374796c653e2e62617365207b2066696c6c3a2077686974653b20666f6e7460008201527f2d66616d696c793a2073657269663b20666f6e742d73697a653a20313470783b60208201527f207d3c2f7374796c653e00000000000000000000000000000000000000000000604082015250565b7f646174613a6170706c69636174696f6e2f6a736f6e3b6261736536342c000000600082015250565b7f3c7465787420783d223530252220793d223530252220636c6173733d2262617360008201527f652220646f6d696e616e742d626173656c696e653d226d6964646c652220746560208201527f78742d616e63686f723d226d6964646c65223e00000000000000000000000000604082015250565b50565b7f22696d616765223a202200000000000000000000000000000000000000000000600082015250565b7f4552433732313a2063616c6c6572206973206e6f7420746f6b656e206f776e6560008201527f72206e6f7220617070726f766564000000000000000000000000000000000000602082015250565b7f3c2f7376673e0000000000000000000000000000000000000000000000000000600082015250565b7f646174613a696d6167652f7376672b786d6c3b6261736536342c000000000000600082015250565b613c368161316f565b8114613c4157600080fd5b50565b613c4d81613181565b8114613c5857600080fd5b50565b613c648161318d565b8114613c6f57600080fd5b50565b613c7b816131d9565b8114613c8657600080fd5b5056fe4142434445464748494a4b4c4d4e4f505152535455565758595a6162636465666768696a6b6c6d6e6f707172737475767778797a303132333435363738392b2fa2646970667358221220449fdcfea3d75d48e6dbbd07ecb7375e57e4b0618e01a38f8647dc3472c66ced64736f6c63430008070033",
  "devdoc": {
    "kind": "dev",
    "methods": {
      "approve(address,uint256)": {
        "details": "See {IERC721-approve}."
      },
      "balanceOf(address)": {
        "details": "See {IERC721-balanceOf}."
      },
      "getApproved(uint256)": {
        "details": "See {IERC721-getApproved}."
      },
      "isApprovedForAll(address,address)": {
        "details": "See {IERC721-isApprovedForAll}."
      },
      "name()": {
        "details": "See {IERC721Metadata-name}."
      },
      "owner()": {
        "details": "Returns the address of the current owner."
      },
      "ownerOf(uint256)": {
        "details": "See {IERC721-ownerOf}."
      },
      "renounceOwnership()": {
        "details": "Leaves the contract without owner. It will not be possible to call `onlyOwner` functions anymore. Can only be called by the current owner. NOTE: Renouncing ownership will leave the contract without an owner, thereby removing any functionality that is only available to the owner."
      },
      "safeTransferFrom(address,address,uint256)": {
        "details": "See {IERC721-safeTransferFrom}."
      },
      "safeTransferFrom(address,address,uint256,bytes)": {
        "details": "See {IERC721-safeTransferFrom}."
      },
      "setApprovalForAll(address,bool)": {
        "details": "See {IERC721-setApprovalForAll}."
      },
      "supportsInterface(bytes4)": {
        "details": "See {IERC165-supportsInterface}."
      },
      "symbol()": {
        "details": "See {IERC721Metadata-symbol}."
      },
      "tokenURI(uint256)": {
        "details": "See {IERC721Metadata-tokenURI}."
      },
      "transferFrom(address,address,uint256)": {
        "details": "See {IERC721-transferFrom}."
      },
      "transferOwnership(address)": {
        "details": "Transfers ownership of the contract to a new account (`newOwner`). Can only be called by the current owner."
      }
    },
    "version": 1
  },
  "userdoc": {
    "kind": "user",
    "methods": {},
    "version": 1
  },
  "storageLayout": {
    "storage": [
      {
        "astId": 138,
        "contract": "contracts/ChainBattles.sol:ChainBattles",
        "label": "_name",
        "offset": 0,
        "slot": "0",
        "type": "t_string_storage"
      },
      {
        "astId": 140,
        "contract": "contracts/ChainBattles.sol:ChainBattles",
        "label": "_symbol",
        "offset": 0,
        "slot": "1",
        "type": "t_string_storage"
      },
      {
        "astId": 144,
        "contract": "contracts/ChainBattles.sol:ChainBattles",
        "label": "_owners",
        "offset": 0,
        "slot": "2",
        "type": "t_mapping(t_uint256,t_address)"
      },
      {
        "astId": 148,
        "contract": "contracts/ChainBattles.sol:ChainBattles",
        "label": "_balances",
        "offset": 0,
        "slot": "3",
        "type": "t_mapping(t_address,t_uint256)"
      },
      {
        "astId": 152,
        "contract": "contracts/ChainBattles.sol:ChainBattles",
        "label": "_tokenApprovals",
        "offset": 0,
        "slot": "4",
        "type": "t_mapping(t_uint256,t_address)"
      },
      {
        "astId": 158,
        "contract": "contracts/ChainBattles.sol:ChainBattles",
        "label": "_operatorApprovals",
        "offset": 0,
        "slot": "5",
        "type": "t_mapping(t_address,t_mapping(t_address,t_bool))"
      },
      {
        "astId": 1126,
        "contract": "contracts/ChainBattles.sol:ChainBattles",
        "label": "_tokenURIs",
        "offset": 0,
        "slot": "6",
        "type": "t_mapping(t_uint256,t_string_storage)"
      },
      {
        "astId": 7,
        "contract": "contracts/ChainBattles.sol:ChainBattles",
        "label": "_owner",
        "offset": 0,
        "slot": "7",
        "type": "t_address"
      },
      {
        "astId": 1999,
        "contract": "contracts/ChainBattles.sol:ChainBattles",
        "label": "s_withdrawalAddress",
        "offset": 0,
        "slot": "8",
        "type": "t_address_payable"
      },
      {
        "astId": 2002,
        "contract": "contracts/ChainBattles.sol:ChainBattles",
        "label": "s_tokenIds",
        "offset": 0,
        "slot": "9",
        "type": "t_struct(Counter)1635_storage"
      },
      {
        "astId": 2006,
        "contract": "contracts/ChainBattles.sol:ChainBattles",
        "label": "s_tokenIdToLevels",
        "offset": 0,
        "slot": "10",
        "type": "t_mapping(t_uint256,t_uint256)"
      }
    ],
    "types": {
      "t_address": {
        "encoding": "inplace",
        "label": "address",
        "numberOfBytes": "20"
      },
      "t_address_payable": {
        "encoding": "inplace",
        "label": "address payable",
        "numberOfBytes": "20"
      },
      "t_bool": {
        "encoding": "inplace",
        "label": "bool",
        "numberOfBytes": "1"
      },
      "t_mapping(t_address,t_bool)": {
        "encoding": "mapping",
        "key": "t_address",
        "label": "mapping(address => bool)",
        "numberOfBytes": "32",
        "value": "t_bool"
      },
      "t_mapping(t_address,t_mapping(t_address,t_bool))": {
        "encoding": "mapping",
        "key": "t_address",
        "label": "mapping(address => mapping(address => bool))",
        "numberOfBytes": "32",
        "value": "t_mapping(t_address,t_bool)"
      },
      "t_mapping(t_address,t_uint256)": {
        "encoding": "mapping",
        "key": "t_address",
        "label": "mapping(address => uint256)",
        "numberOfBytes": "32",
        "value": "t_uint256"
      },
      "t_mapping(t_uint256,t_address)": {
        "encoding": "mapping",
        "key": "t_uint256",
        "label": "mapping(uint256 => address)",
        "numberOfBytes": "32",
        "value": "t_address"
      },
      "t_mapping(t_uint256,t_string_storage)": {
        "encoding": "mapping",
        "key": "t_uint256",
        "label": "mapping(uint256 => string)",
        "numberOfBytes": "32",
        "value": "t_string_storage"
      },
      "t_mapping(t_uint256,t_uint256)": {
        "encoding": "mapping",
        "key": "t_uint256",
        "label": "mapping(uint256 => uint256)",
        "numberOfBytes": "32",
        "value": "t_uint256"
      },
      "t_string_storage": {
        "encoding": "bytes",
        "label": "string",
        "numberOfBytes": "32"
      },
      "t_struct(Counter)1635_storage": {
        "encoding": "inplace",
        "label": "struct Counters.Counter",
        "members": [
          {
            "astId": 1634,
            "contract": "contracts/ChainBattles.sol:ChainBattles",
            "label": "_value",
            "offset": 0,
            "slot": "0",
            "type": "t_uint256"
          }
        ],
        "numberOfBytes": "32"
      },
      "t_uint256": {
        "encoding": "inplace",
        "label": "uint256",
        "numberOfBytes": "32"
      }
    }
  }
}