{
  "address": "0xcb860c80B73737970f9e149c2cd061bc33ad642f",
  "abi": [
    {
      "inputs": [
        {
          "internalType": "string",
          "name": "tokenName",
          "type": "string"
        },
        {
          "internalType": "string",
          "name": "tokenSymbol",
          "type": "string"
        },
        {
          "internalType": "uint256",
          "name": "mintFee",
          "type": "uint256"
        },
        {
          "internalType": "uint256",
          "name": "maxSupply",
          "type": "uint256"
        }
      ],
      "stateMutability": "nonpayable",
      "type": "constructor"
    },
    {
      "inputs": [],
      "name": "ChainBattles__MaxSupplyReached",
      "type": "error"
    },
    {
      "inputs": [],
      "name": "ChainBattles__NotApprovedOrOwner",
      "type": "error"
    },
    {
      "inputs": [],
      "name": "ChainBattles__NotEnoughETHSent",
      "type": "error"
    },
    {
      "inputs": [],
      "name": "ChainBattles__TokenIDNotExists",
      "type": "error"
    },
    {
      "inputs": [],
      "name": "ChainBattles__WithdrawFailed",
      "type": "error"
    },
    {
      "anonymous": false,
      "inputs": [
        {
          "indexed": true,
          "internalType": "address",
          "name": "owner",
          "type": "address"
        },
        {
          "indexed": true,
          "internalType": "address",
          "name": "approved",
          "type": "address"
        },
        {
          "indexed": true,
          "internalType": "uint256",
          "name": "tokenId",
          "type": "uint256"
        }
      ],
      "name": "Approval",
      "type": "event"
    },
    {
      "anonymous": false,
      "inputs": [
        {
          "indexed": true,
          "internalType": "address",
          "name": "owner",
          "type": "address"
        },
        {
          "indexed": true,
          "internalType": "address",
          "name": "operator",
          "type": "address"
        },
        {
          "indexed": false,
          "internalType": "bool",
          "name": "approved",
          "type": "bool"
        }
      ],
      "name": "ApprovalForAll",
      "type": "event"
    },
    {
      "anonymous": false,
      "inputs": [
        {
          "indexed": true,
          "internalType": "uint256",
          "name": "tokenId",
          "type": "uint256"
        }
      ],
      "name": "MintedNft",
      "type": "event"
    },
    {
      "anonymous": false,
      "inputs": [
        {
          "indexed": true,
          "internalType": "address",
          "name": "previousOwner",
          "type": "address"
        },
        {
          "indexed": true,
          "internalType": "address",
          "name": "newOwner",
          "type": "address"
        }
      ],
      "name": "OwnershipTransferred",
      "type": "event"
    },
    {
      "anonymous": false,
      "inputs": [
        {
          "indexed": true,
          "internalType": "uint256",
          "name": "tokenId",
          "type": "uint256"
        },
        {
          "indexed": false,
          "internalType": "uint256",
          "name": "level",
          "type": "uint256"
        }
      ],
      "name": "TrainedNft",
      "type": "event"
    },
    {
      "anonymous": false,
      "inputs": [
        {
          "indexed": true,
          "internalType": "address",
          "name": "from",
          "type": "address"
        },
        {
          "indexed": true,
          "internalType": "address",
          "name": "to",
          "type": "address"
        },
        {
          "indexed": true,
          "internalType": "uint256",
          "name": "tokenId",
          "type": "uint256"
        }
      ],
      "name": "Transfer",
      "type": "event"
    },
    {
      "inputs": [
        {
          "internalType": "address",
          "name": "to",
          "type": "address"
        },
        {
          "internalType": "uint256",
          "name": "tokenId",
          "type": "uint256"
        }
      ],
      "name": "approve",
      "outputs": [],
      "stateMutability": "nonpayable",
      "type": "function"
    },
    {
      "inputs": [
        {
          "internalType": "address",
          "name": "owner",
          "type": "address"
        }
      ],
      "name": "balanceOf",
      "outputs": [
        {
          "internalType": "uint256",
          "name": "",
          "type": "uint256"
        }
      ],
      "stateMutability": "view",
      "type": "function"
    },
    {
      "inputs": [
        {
          "internalType": "uint256",
          "name": "tokenId",
          "type": "uint256"
        }
      ],
      "name": "getApproved",
      "outputs": [
        {
          "internalType": "address",
          "name": "",
          "type": "address"
        }
      ],
      "stateMutability": "view",
      "type": "function"
    },
    {
      "inputs": [],
      "name": "getMaxSupply",
      "outputs": [
        {
          "internalType": "uint256",
          "name": "",
          "type": "uint256"
        }
      ],
      "stateMutability": "view",
      "type": "function"
    },
    {
      "inputs": [],
      "name": "getMintFee",
      "outputs": [
        {
          "internalType": "uint256",
          "name": "",
          "type": "uint256"
        }
      ],
      "stateMutability": "view",
      "type": "function"
    },
    {
      "inputs": [],
      "name": "getMinted",
      "outputs": [
        {
          "internalType": "uint256",
          "name": "",
          "type": "uint256"
        }
      ],
      "stateMutability": "view",
      "type": "function"
    },
    {
      "inputs": [
        {
          "internalType": "uint256",
          "name": "tokenId",
          "type": "uint256"
        }
      ],
      "name": "getTokenIdToLevels",
      "outputs": [
        {
          "internalType": "uint256",
          "name": "",
          "type": "uint256"
        }
      ],
      "stateMutability": "view",
      "type": "function"
    },
    {
      "inputs": [],
      "name": "getWithdrawalAddress",
      "outputs": [
        {
          "internalType": "address",
          "name": "",
          "type": "address"
        }
      ],
      "stateMutability": "view",
      "type": "function"
    },
    {
      "inputs": [
        {
          "internalType": "address",
          "name": "owner",
          "type": "address"
        },
        {
          "internalType": "address",
          "name": "operator",
          "type": "address"
        }
      ],
      "name": "isApprovedForAll",
      "outputs": [
        {
          "internalType": "bool",
          "name": "",
          "type": "bool"
        }
      ],
      "stateMutability": "view",
      "type": "function"
    },
    {
      "inputs": [],
      "name": "mint",
      "outputs": [],
      "stateMutability": "payable",
      "type": "function"
    },
    {
      "inputs": [],
      "name": "name",
      "outputs": [
        {
          "internalType": "string",
          "name": "",
          "type": "string"
        }
      ],
      "stateMutability": "view",
      "type": "function"
    },
    {
      "inputs": [],
      "name": "owner",
      "outputs": [
        {
          "internalType": "address",
          "name": "",
          "type": "address"
        }
      ],
      "stateMutability": "view",
      "type": "function"
    },
    {
      "inputs": [
        {
          "internalType": "uint256",
          "name": "tokenId",
          "type": "uint256"
        }
      ],
      "name": "ownerOf",
      "outputs": [
        {
          "internalType": "address",
          "name": "",
          "type": "address"
        }
      ],
      "stateMutability": "view",
      "type": "function"
    },
    {
      "inputs": [],
      "name": "renounceOwnership",
      "outputs": [],
      "stateMutability": "nonpayable",
      "type": "function"
    },
    {
      "inputs": [
        {
          "internalType": "address",
          "name": "from",
          "type": "address"
        },
        {
          "internalType": "address",
          "name": "to",
          "type": "address"
        },
        {
          "internalType": "uint256",
          "name": "tokenId",
          "type": "uint256"
        }
      ],
      "name": "safeTransferFrom",
      "outputs": [],
      "stateMutability": "nonpayable",
      "type": "function"
    },
    {
      "inputs": [
        {
          "internalType": "address",
          "name": "from",
          "type": "address"
        },
        {
          "internalType": "address",
          "name": "to",
          "type": "address"
        },
        {
          "internalType": "uint256",
          "name": "tokenId",
          "type": "uint256"
        },
        {
          "internalType": "bytes",
          "name": "data",
          "type": "bytes"
        }
      ],
      "name": "safeTransferFrom",
      "outputs": [],
      "stateMutability": "nonpayable",
      "type": "function"
    },
    {
      "inputs": [
        {
          "internalType": "address",
          "name": "operator",
          "type": "address"
        },
        {
          "internalType": "bool",
          "name": "approved",
          "type": "bool"
        }
      ],
      "name": "setApprovalForAll",
      "outputs": [],
      "stateMutability": "nonpayable",
      "type": "function"
    },
    {
      "inputs": [
        {
          "internalType": "address",
          "name": "newOwner",
          "type": "address"
        }
      ],
      "name": "setWithdrawalAddress",
      "outputs": [],
      "stateMutability": "nonpayable",
      "type": "function"
    },
    {
      "inputs": [
        {
          "internalType": "bytes4",
          "name": "interfaceId",
          "type": "bytes4"
        }
      ],
      "name": "supportsInterface",
      "outputs": [
        {
          "internalType": "bool",
          "name": "",
          "type": "bool"
        }
      ],
      "stateMutability": "view",
      "type": "function"
    },
    {
      "inputs": [],
      "name": "symbol",
      "outputs": [
        {
          "internalType": "string",
          "name": "",
          "type": "string"
        }
      ],
      "stateMutability": "view",
      "type": "function"
    },
    {
      "inputs": [
        {
          "internalType": "uint256",
          "name": "index",
          "type": "uint256"
        }
      ],
      "name": "tokenByIndex",
      "outputs": [
        {
          "internalType": "uint256",
          "name": "",
          "type": "uint256"
        }
      ],
      "stateMutability": "view",
      "type": "function"
    },
    {
      "inputs": [
        {
          "internalType": "address",
          "name": "owner",
          "type": "address"
        },
        {
          "internalType": "uint256",
          "name": "index",
          "type": "uint256"
        }
      ],
      "name": "tokenOfOwnerByIndex",
      "outputs": [
        {
          "internalType": "uint256",
          "name": "",
          "type": "uint256"
        }
      ],
      "stateMutability": "view",
      "type": "function"
    },
    {
      "inputs": [
        {
          "internalType": "uint256",
          "name": "tokenId",
          "type": "uint256"
        }
      ],
      "name": "tokenURI",
      "outputs": [
        {
          "internalType": "string",
          "name": "",
          "type": "string"
        }
      ],
      "stateMutability": "view",
      "type": "function"
    },
    {
      "inputs": [],
      "name": "totalSupply",
      "outputs": [
        {
          "internalType": "uint256",
          "name": "",
          "type": "uint256"
        }
      ],
      "stateMutability": "view",
      "type": "function"
    },
    {
      "inputs": [
        {
          "internalType": "uint256",
          "name": "tokenId",
          "type": "uint256"
        }
      ],
      "name": "train",
      "outputs": [],
      "stateMutability": "nonpayable",
      "type": "function"
    },
    {
      "inputs": [
        {
          "internalType": "address",
          "name": "from",
          "type": "address"
        },
        {
          "internalType": "address",
          "name": "to",
          "type": "address"
        },
        {
          "internalType": "uint256",
          "name": "tokenId",
          "type": "uint256"
        }
      ],
      "name": "transferFrom",
      "outputs": [],
      "stateMutability": "nonpayable",
      "type": "function"
    },
    {
      "inputs": [
        {
          "internalType": "address",
          "name": "newOwner",
          "type": "address"
        }
      ],
      "name": "transferOwnership",
      "outputs": [],
      "stateMutability": "nonpayable",
      "type": "function"
    },
    {
      "inputs": [],
      "name": "withdraw",
      "outputs": [],
      "stateMutability": "nonpayable",
      "type": "function"
    }
  ],
  "transactionHash": "0x703a5acf491ae54f833907b244551f3f6a83460d0ecb374fb5ad3fc07d148ab8",
  "args": [
    "Chain Battles",
    "CBTLS",
    "10000000000000000",
    5
  ],
  "numDeployments": 2,
  "solcInputHash": "5d50e9443c7e99dddd7e8c532c59437b",
  "bytecode": "0x60c06040523480156200001157600080fd5b5060405162004aba38038062004aba8339818101604052810190620000379190620002fb565b8383816000908051906020019062000051929190620001b6565b5080600190805190602001906200006a929190620001b6565b5050506200008d62000081620000e860201b60201c565b620000f060201b60201c565b81608081815250508060a0818152505033600c60006101000a81548173ffffffffffffffffffffffffffffffffffffffff021916908373ffffffffffffffffffffffffffffffffffffffff1602179055505050505062000553565b600033905090565b6000600b60009054906101000a900473ffffffffffffffffffffffffffffffffffffffff16905081600b60006101000a81548173ffffffffffffffffffffffffffffffffffffffff021916908373ffffffffffffffffffffffffffffffffffffffff1602179055508173ffffffffffffffffffffffffffffffffffffffff168173ffffffffffffffffffffffffffffffffffffffff167f8be0079c531659141344cd1fd0a4f28419497f9722a3daafe3b4186f6b6457e060405160405180910390a35050565b828054620001c4906200044a565b90600052602060002090601f016020900481019282620001e8576000855562000234565b82601f106200020357805160ff191683800117855562000234565b8280016001018555821562000234579182015b828111156200023357825182559160200191906001019062000216565b5b50905062000243919062000247565b5090565b5b808211156200026257600081600090555060010162000248565b5090565b60006200027d6200027784620003d4565b620003ab565b9050828152602081018484840111156200029c576200029b62000519565b5b620002a984828562000414565b509392505050565b600082601f830112620002c957620002c862000514565b5b8151620002db84826020860162000266565b91505092915050565b600081519050620002f58162000539565b92915050565b6000806000806080858703121562000318576200031762000523565b5b600085015167ffffffffffffffff8111156200033957620003386200051e565b5b6200034787828801620002b1565b945050602085015167ffffffffffffffff8111156200036b576200036a6200051e565b5b6200037987828801620002b1565b93505060406200038c87828801620002e4565b92505060606200039f87828801620002e4565b91505092959194509250565b6000620003b7620003ca565b9050620003c5828262000480565b919050565b6000604051905090565b600067ffffffffffffffff821115620003f257620003f1620004e5565b5b620003fd8262000528565b9050602081019050919050565b6000819050919050565b60005b838110156200043457808201518184015260208101905062000417565b8381111562000444576000848401525b50505050565b600060028204905060018216806200046357607f821691505b602082108114156200047a5762000479620004b6565b5b50919050565b6200048b8262000528565b810181811067ffffffffffffffff82111715620004ad57620004ac620004e5565b5b80604052505050565b7f4e487b7100000000000000000000000000000000000000000000000000000000600052602260045260246000fd5b7f4e487b7100000000000000000000000000000000000000000000000000000000600052604160045260246000fd5b600080fd5b600080fd5b600080fd5b600080fd5b6000601f19601f8301169050919050565b62000544816200040a565b81146200055057600080fd5b50565b60805160a05161453362000587600039600081816109170152610d560152600081816108bd0152610f6d01526145336000f3fe6080604052600436106101b75760003560e01c80636352211e116100ec578063a22cb4651161008a578063c87b56dd11610064578063c87b56dd146105eb578063e985e9c514610628578063ec8f3fa514610665578063f2fde38b14610690576101b7565b8063a22cb4651461056e578063ac72200d14610597578063b88d4fde146105c2576101b7565b80637a5caab3116100c65780637a5caab3146104b05780638da5cb5b146104db57806395d89b4114610506578063967ea1f414610531576101b7565b80636352211e1461041f57806370a082311461045c578063715018a614610499576101b7565b806323b872dd116101595780633ccfd60b116101335780633ccfd60b1461037757806342842e0e1461038e5780634c0f38c2146103b75780634f6ccce7146103e2576101b7565b806323b872dd146102e85780632f745c5914610311578063368004ed1461034e576101b7565b8063095ea7b311610195578063095ea7b3146102615780631249c58b1461028a57806318160ddd1461029457806321b8092e146102bf576101b7565b806301ffc9a7146101bc57806306fdde03146101f9578063081812fc14610224575b600080fd5b3480156101c857600080fd5b506101e360048036038101906101de9190612ccb565b6106b9565b6040516101f091906134c5565b60405180910390f35b34801561020557600080fd5b5061020e6106cb565b60405161021b91906134e0565b60405180910390f35b34801561023057600080fd5b5061024b60048036038101906102469190612d25565b61075d565b604051610258919061345e565b60405180910390f35b34801561026d57600080fd5b5061028860048036038101906102839190612c8b565b6107a3565b005b6102926108bb565b005b3480156102a057600080fd5b506102a96109f5565b6040516102b69190613702565b60405180910390f35b3480156102cb57600080fd5b506102e660048036038101906102e19190612b08565b610a02565b005b3480156102f457600080fd5b5061030f600480360381019061030a9190612b75565b610a4e565b005b34801561031d57600080fd5b5061033860048036038101906103339190612c8b565b610aae565b6040516103459190613702565b60405180910390f35b34801561035a57600080fd5b5061037560048036038101906103709190612d25565b610b53565b005b34801561038357600080fd5b5061038c610c5c565b005b34801561039a57600080fd5b506103b560048036038101906103b09190612b75565b610d32565b005b3480156103c357600080fd5b506103cc610d52565b6040516103d99190613702565b60405180910390f35b3480156103ee57600080fd5b5061040960048036038101906104049190612d25565b610d7a565b6040516104169190613702565b60405180910390f35b34801561042b57600080fd5b5061044660048036038101906104419190612d25565b610deb565b604051610453919061345e565b60405180910390f35b34801561046857600080fd5b50610483600480360381019061047e9190612b08565b610e9d565b6040516104909190613702565b60405180910390f35b3480156104a557600080fd5b506104ae610f55565b005b3480156104bc57600080fd5b506104c5610f69565b6040516104d29190613702565b60405180910390f35b3480156104e757600080fd5b506104f0610f91565b6040516104fd919061345e565b60405180910390f35b34801561051257600080fd5b5061051b610fbb565b60405161052891906134e0565b60405180910390f35b34801561053d57600080fd5b5061055860048036038101906105539190612d25565b61104d565b6040516105659190613702565b60405180910390f35b34801561057a57600080fd5b5061059560048036038101906105909190612c4b565b61106a565b005b3480156105a357600080fd5b506105ac611080565b6040516105b99190613702565b60405180910390f35b3480156105ce57600080fd5b506105e960048036038101906105e49190612bc8565b611091565b005b3480156105f757600080fd5b50610612600480360381019061060d9190612d25565b6110f3565b60405161061f91906134e0565b60405180910390f35b34801561063457600080fd5b5061064f600480360381019061064a9190612b35565b611105565b60405161065c91906134c5565b60405180910390f35b34801561067157600080fd5b5061067a611199565b604051610687919061345e565b60405180910390f35b34801561069c57600080fd5b506106b760048036038101906106b29190612b08565b6111c3565b005b60006106c482611247565b9050919050565b6060600080546106da9061398c565b80601f01602080910402602001604051908101604052809291908181526020018280546107069061398c565b80156107535780601f1061072857610100808354040283529160200191610753565b820191906000526020600020905b81548152906001019060200180831161073657829003601f168201915b5050505050905090565b6000610768826112c1565b6004600083815260200190815260200160002060009054906101000a900473ffffffffffffffffffffffffffffffffffffffff169050919050565b60006107ae82610deb565b90508073ffffffffffffffffffffffffffffffffffffffff168373ffffffffffffffffffffffffffffffffffffffff16141561081f576040517f08c379a0000000000000000000000000000000000000000000000000000000008152600401610816906136a2565b60405180910390fd5b8073ffffffffffffffffffffffffffffffffffffffff1661083e61130c565b73ffffffffffffffffffffffffffffffffffffffff16148061086d575061086c8161086761130c565b611105565b5b6108ac576040517f08c379a00000000000000000000000000000000000000000000000000000000081526004016108a390613622565b60405180910390fd5b6108b68383611314565b505050565b7f0000000000000000000000000000000000000000000000000000000000000000341015610915576040517f7b1329d100000000000000000000000000000000000000000000000000000000815260040160405180910390fd5b7f0000000000000000000000000000000000000000000000000000000000000000610940600d6113cd565b1415610978576040517fc9f79eed00000000000000000000000000000000000000000000000000000000815260040160405180910390fd5b610982600d6113db565b600061098e600d6113cd565b905061099a33826113f1565b6000600e6000838152602001908152602001600020819055506109c5816109c08361140f565b611477565b807fd4136d39a3898eaf9b7b4498f616ad832198c51b321cdf8be4fac22d68801f7e60405160405180910390a250565b6000600880549050905090565b610a0a6114eb565b80600c60006101000a81548173ffffffffffffffffffffffffffffffffffffffff021916908373ffffffffffffffffffffffffffffffffffffffff16021790555050565b610a5f610a5961130c565b82611569565b610a9e576040517f08c379a0000000000000000000000000000000000000000000000000000000008152600401610a95906136e2565b60405180910390fd5b610aa98383836115fe565b505050565b6000610ab983610e9d565b8210610afa576040517f08c379a0000000000000000000000000000000000000000000000000000000008152600401610af190613502565b60405180910390fd5b600660008473ffffffffffffffffffffffffffffffffffffffff1673ffffffffffffffffffffffffffffffffffffffff168152602001908152602001600020600083815260200190815260200160002054905092915050565b610b5c81611865565b610b92576040517fe05557f500000000000000000000000000000000000000000000000000000000815260040160405180910390fd5b610b9c3382611569565b610bd2576040517f1f8472db00000000000000000000000000000000000000000000000000000000815260040160405180910390fd5b60006001600e600084815260200190815260200160002054610bf491906137c1565b905080600e600084815260200190815260200160002081905550610c2082610c1b8461140f565b611477565b817fb861c8ce54f6aae45f6f53fb989a9d7efd429ac4b8f6faee9879cf8a07a4c2b682604051610c509190613702565b60405180910390a25050565b610c646114eb565b60004790506000600c60009054906101000a900473ffffffffffffffffffffffffffffffffffffffff1673ffffffffffffffffffffffffffffffffffffffff1682604051610cb190613427565b60006040518083038185875af1925050503d8060008114610cee576040519150601f19603f3d011682016040523d82523d6000602084013e610cf3565b606091505b5050905080610d2e576040517f7d771dc500000000000000000000000000000000000000000000000000000000815260040160405180910390fd5b5050565b610d4d83838360405180602001604052806000815250611091565b505050565b60007f0000000000000000000000000000000000000000000000000000000000000000905090565b6000610d846109f5565b8210610dc5576040517f08c379a0000000000000000000000000000000000000000000000000000000008152600401610dbc906136c2565b60405180910390fd5b60088281548110610dd957610dd8613b25565b5b90600052602060002001549050919050565b6000806002600084815260200190815260200160002060009054906101000a900473ffffffffffffffffffffffffffffffffffffffff169050600073ffffffffffffffffffffffffffffffffffffffff168173ffffffffffffffffffffffffffffffffffffffff161415610e94576040517f08c379a0000000000000000000000000000000000000000000000000000000008152600401610e8b90613682565b60405180910390fd5b80915050919050565b60008073ffffffffffffffffffffffffffffffffffffffff168273ffffffffffffffffffffffffffffffffffffffff161415610f0e576040517f08c379a0000000000000000000000000000000000000000000000000000000008152600401610f05906135e2565b60405180910390fd5b600360008373ffffffffffffffffffffffffffffffffffffffff1673ffffffffffffffffffffffffffffffffffffffff168152602001908152602001600020549050919050565b610f5d6114eb565b610f6760006118d1565b565b60007f0000000000000000000000000000000000000000000000000000000000000000905090565b6000600b60009054906101000a900473ffffffffffffffffffffffffffffffffffffffff16905090565b606060018054610fca9061398c565b80601f0160208091040260200160405190810160405280929190818152602001828054610ff69061398c565b80156110435780601f1061101857610100808354040283529160200191611043565b820191906000526020600020905b81548152906001019060200180831161102657829003601f168201915b5050505050905090565b6000600e6000838152602001908152602001600020549050919050565b61107c61107561130c565b8383611997565b5050565b600061108c600d6113cd565b905090565b6110a261109c61130c565b83611569565b6110e1576040517f08c379a00000000000000000000000000000000000000000000000000000000081526004016110d8906136e2565b60405180910390fd5b6110ed84848484611b04565b50505050565b60606110fe82611b60565b9050919050565b6000600560008473ffffffffffffffffffffffffffffffffffffffff1673ffffffffffffffffffffffffffffffffffffffff16815260200190815260200160002060008373ffffffffffffffffffffffffffffffffffffffff1673ffffffffffffffffffffffffffffffffffffffff16815260200190815260200160002060009054906101000a900460ff16905092915050565b6000600c60009054906101000a900473ffffffffffffffffffffffffffffffffffffffff16905090565b6111cb6114eb565b600073ffffffffffffffffffffffffffffffffffffffff168173ffffffffffffffffffffffffffffffffffffffff16141561123b576040517f08c379a000000000000000000000000000000000000000000000000000000000815260040161123290613542565b60405180910390fd5b611244816118d1565b50565b60007f780e9d63000000000000000000000000000000000000000000000000000000007bffffffffffffffffffffffffffffffffffffffffffffffffffffffff1916827bffffffffffffffffffffffffffffffffffffffffffffffffffffffff191614806112ba57506112b982611c73565b5b9050919050565b6112ca81611865565b611309576040517f08c379a000000000000000000000000000000000000000000000000000000000815260040161130090613682565b60405180910390fd5b50565b600033905090565b816004600083815260200190815260200160002060006101000a81548173ffffffffffffffffffffffffffffffffffffffff021916908373ffffffffffffffffffffffffffffffffffffffff160217905550808273ffffffffffffffffffffffffffffffffffffffff1661138783610deb565b73ffffffffffffffffffffffffffffffffffffffff167f8c5be1e5ebec7d5bd14f71427d1e84f3dd0314c0f7b2291e5b200ac8c7c3b92560405160405180910390a45050565b600081600001549050919050565b6001816000016000828254019250508190555050565b61140b828260405180602001604052806000815250611d55565b5050565b6060600061141c83611db0565b61142584611f11565b604051602001611436929190613394565b604051602081830303815290604052905061145081611f77565b6040516020016114609190613405565b604051602081830303815290604052915050919050565b61148082611865565b6114bf576040517f08c379a00000000000000000000000000000000000000000000000000000000081526004016114b690613602565b60405180910390fd5b80600a600084815260200190815260200160002090805190602001906114e692919061298c565b505050565b6114f361130c565b73ffffffffffffffffffffffffffffffffffffffff16611511610f91565b73ffffffffffffffffffffffffffffffffffffffff1614611567576040517f08c379a000000000000000000000000000000000000000000000000000000000815260040161155e90613662565b60405180910390fd5b565b60008061157583610deb565b90508073ffffffffffffffffffffffffffffffffffffffff168473ffffffffffffffffffffffffffffffffffffffff1614806115b757506115b68185611105565b5b806115f557508373ffffffffffffffffffffffffffffffffffffffff166115dd8461075d565b73ffffffffffffffffffffffffffffffffffffffff16145b91505092915050565b8273ffffffffffffffffffffffffffffffffffffffff1661161e82610deb565b73ffffffffffffffffffffffffffffffffffffffff1614611674576040517f08c379a000000000000000000000000000000000000000000000000000000000815260040161166b90613562565b60405180910390fd5b600073ffffffffffffffffffffffffffffffffffffffff168273ffffffffffffffffffffffffffffffffffffffff1614156116e4576040517f08c379a00000000000000000000000000000000000000000000000000000000081526004016116db906135a2565b60405180910390fd5b6116ef8383836120db565b6116fa600082611314565b6001600360008573ffffffffffffffffffffffffffffffffffffffff1673ffffffffffffffffffffffffffffffffffffffff168152602001908152602001600020600082825461174a91906138a2565b925050819055506001600360008473ffffffffffffffffffffffffffffffffffffffff1673ffffffffffffffffffffffffffffffffffffffff16815260200190815260200160002060008282546117a191906137c1565b92505081905550816002600083815260200190815260200160002060006101000a81548173ffffffffffffffffffffffffffffffffffffffff021916908373ffffffffffffffffffffffffffffffffffffffff160217905550808273ffffffffffffffffffffffffffffffffffffffff168473ffffffffffffffffffffffffffffffffffffffff167fddf252ad1be2c89b69c2b068fc378daa952ba7f163c4a11628f55a4df523b3ef60405160405180910390a46118608383836120eb565b505050565b60008073ffffffffffffffffffffffffffffffffffffffff166002600084815260200190815260200160002060009054906101000a900473ffffffffffffffffffffffffffffffffffffffff1673ffffffffffffffffffffffffffffffffffffffff1614159050919050565b6000600b60009054906101000a900473ffffffffffffffffffffffffffffffffffffffff16905081600b60006101000a81548173ffffffffffffffffffffffffffffffffffffffff021916908373ffffffffffffffffffffffffffffffffffffffff1602179055508173ffffffffffffffffffffffffffffffffffffffff168173ffffffffffffffffffffffffffffffffffffffff167f8be0079c531659141344cd1fd0a4f28419497f9722a3daafe3b4186f6b6457e060405160405180910390a35050565b8173ffffffffffffffffffffffffffffffffffffffff168373ffffffffffffffffffffffffffffffffffffffff161415611a06576040517f08c379a00000000000000000000000000000000000000000000000000000000081526004016119fd906135c2565b60405180910390fd5b80600560008573ffffffffffffffffffffffffffffffffffffffff1673ffffffffffffffffffffffffffffffffffffffff16815260200190815260200160002060008473ffffffffffffffffffffffffffffffffffffffff1673ffffffffffffffffffffffffffffffffffffffff16815260200190815260200160002060006101000a81548160ff0219169083151502179055508173ffffffffffffffffffffffffffffffffffffffff168373ffffffffffffffffffffffffffffffffffffffff167f17307eab39ab6107e8899845ad3d59bd9653f200f220920489ca2b5937696c3183604051611af791906134c5565b60405180910390a3505050565b611b0f8484846115fe565b611b1b848484846120f0565b611b5a576040517f08c379a0000000000000000000000000000000000000000000000000000000008152600401611b5190613522565b60405180910390fd5b50505050565b6060611b6b826112c1565b6000600a60008481526020019081526020016000208054611b8b9061398c565b80601f0160208091040260200160405190810160405280929190818152602001828054611bb79061398c565b8015611c045780601f10611bd957610100808354040283529160200191611c04565b820191906000526020600020905b815481529060010190602001808311611be757829003601f168201915b505050505090506000611c15612287565b9050600081511415611c2b578192505050611c6e565b600082511115611c60578082604051602001611c489291906132eb565b60405160208183030381529060405292505050611c6e565b611c698461229e565b925050505b919050565b60007f80ac58cd000000000000000000000000000000000000000000000000000000007bffffffffffffffffffffffffffffffffffffffffffffffffffffffff1916827bffffffffffffffffffffffffffffffffffffffffffffffffffffffff19161480611d3e57507f5b5e139f000000000000000000000000000000000000000000000000000000007bffffffffffffffffffffffffffffffffffffffffffffffffffffffff1916827bffffffffffffffffffffffffffffffffffffffffffffffffffffffff1916145b80611d4e5750611d4d82612306565b5b9050919050565b611d5f8383612370565b611d6c60008484846120f0565b611dab576040517f08c379a0000000000000000000000000000000000000000000000000000000008152600401611da290613522565b60405180910390fd5b505050565b60606000821415611df8576040518060400160405280600181526020017f30000000000000000000000000000000000000000000000000000000000000008152509050611f0c565b600082905060005b60008214611e2a578080611e13906139ef565b915050600a82611e239190613817565b9150611e00565b60008167ffffffffffffffff811115611e4657611e45613b54565b5b6040519080825280601f01601f191660200182016040528015611e785781602001600182028036833780820191505090505b5090505b60008514611f0557600182611e9191906138a2565b9150600a85611ea09190613a38565b6030611eac91906137c1565b60f81b818381518110611ec257611ec1613b25565b5b60200101907effffffffffffffffffffffffffffffffffffffffffffffffffffffffffffff1916908160001a905350600a85611efe9190613817565b9450611e7c565b8093505050505b919050565b60606000611f26611f218461104d565b611db0565b604051602001611f36919061330f565b6040516020818303038152906040529050611f5081611f77565b604051602001611f60919061343c565b604051602081830303815290604052915050919050565b6060600082511415611f9a576040518060200160405280600081525090506120d6565b60006040518060600160405280604081526020016144be6040913990506000600360028551611fc991906137c1565b611fd39190613817565b6004611fdf9190613848565b67ffffffffffffffff811115611ff857611ff7613b54565b5b6040519080825280601f01601f19166020018201604052801561202a5781602001600182028036833780820191505090505b509050600182016020820185865187015b80821015612096576003820191508151603f8160121c168501518453600184019350603f81600c1c168501518453600184019350603f8160061c168501518453600184019350603f811685015184536001840193505061203b565b50506003865106600181146120b257600281146120c5576120cd565b603d6001830353603d60028303536120cd565b603d60018303535b50505080925050505b919050565b6120e683838361254a565b505050565b505050565b60006121118473ffffffffffffffffffffffffffffffffffffffff1661265e565b1561227a578373ffffffffffffffffffffffffffffffffffffffff1663150b7a0261213a61130c565b8786866040518563ffffffff1660e01b815260040161215c9493929190613479565b602060405180830381600087803b15801561217657600080fd5b505af19250505080156121a757506040513d601f19601f820116820180604052508101906121a49190612cf8565b60015b61222a573d80600081146121d7576040519150601f19603f3d011682016040523d82523d6000602084013e6121dc565b606091505b50600081511415612222576040517f08c379a000000000000000000000000000000000000000000000000000000000815260040161221990613522565b60405180910390fd5b805181602001fd5b63150b7a0260e01b7bffffffffffffffffffffffffffffffffffffffffffffffffffffffff1916817bffffffffffffffffffffffffffffffffffffffffffffffffffffffff19161491505061227f565b600190505b949350505050565b606060405180602001604052806000815250905090565b60606122a9826112c1565b60006122b3612287565b905060008151116122d357604051806020016040528060008152506122fe565b806122dd84611db0565b6040516020016122ee9291906132eb565b6040516020818303038152906040525b915050919050565b60007f01ffc9a7000000000000000000000000000000000000000000000000000000007bffffffffffffffffffffffffffffffffffffffffffffffffffffffff1916827bffffffffffffffffffffffffffffffffffffffffffffffffffffffff1916149050919050565b600073ffffffffffffffffffffffffffffffffffffffff168273ffffffffffffffffffffffffffffffffffffffff1614156123e0576040517f08c379a00000000000000000000000000000000000000000000000000000000081526004016123d790613642565b60405180910390fd5b6123e981611865565b15612429576040517f08c379a000000000000000000000000000000000000000000000000000000000815260040161242090613582565b60405180910390fd5b612435600083836120db565b6001600360008473ffffffffffffffffffffffffffffffffffffffff1673ffffffffffffffffffffffffffffffffffffffff168152602001908152602001600020600082825461248591906137c1565b92505081905550816002600083815260200190815260200160002060006101000a81548173ffffffffffffffffffffffffffffffffffffffff021916908373ffffffffffffffffffffffffffffffffffffffff160217905550808273ffffffffffffffffffffffffffffffffffffffff16600073ffffffffffffffffffffffffffffffffffffffff167fddf252ad1be2c89b69c2b068fc378daa952ba7f163c4a11628f55a4df523b3ef60405160405180910390a4612546600083836120eb565b5050565b612555838383612681565b600073ffffffffffffffffffffffffffffffffffffffff168373ffffffffffffffffffffffffffffffffffffffff1614156125985761259381612686565b6125d7565b8173ffffffffffffffffffffffffffffffffffffffff168373ffffffffffffffffffffffffffffffffffffffff16146125d6576125d583826126cf565b5b5b600073ffffffffffffffffffffffffffffffffffffffff168273ffffffffffffffffffffffffffffffffffffffff16141561261a576126158161283c565b612659565b8273ffffffffffffffffffffffffffffffffffffffff168273ffffffffffffffffffffffffffffffffffffffff161461265857612657828261290d565b5b5b505050565b6000808273ffffffffffffffffffffffffffffffffffffffff163b119050919050565b505050565b6008805490506009600083815260200190815260200160002081905550600881908060018154018082558091505060019003906000526020600020016000909190919091505550565b600060016126dc84610e9d565b6126e691906138a2565b90506000600760008481526020019081526020016000205490508181146127cb576000600660008673ffffffffffffffffffffffffffffffffffffffff1673ffffffffffffffffffffffffffffffffffffffff168152602001908152602001600020600084815260200190815260200160002054905080600660008773ffffffffffffffffffffffffffffffffffffffff1673ffffffffffffffffffffffffffffffffffffffff168152602001908152602001600020600084815260200190815260200160002081905550816007600083815260200190815260200160002081905550505b6007600084815260200190815260200160002060009055600660008573ffffffffffffffffffffffffffffffffffffffff1673ffffffffffffffffffffffffffffffffffffffff16815260200190815260200160002060008381526020019081526020016000206000905550505050565b6000600160088054905061285091906138a2565b90506000600960008481526020019081526020016000205490506000600883815481106128805761287f613b25565b5b9060005260206000200154905080600883815481106128a2576128a1613b25565b5b9060005260206000200181905550816009600083815260200190815260200160002081905550600960008581526020019081526020016000206000905560088054806128f1576128f0613af6565b5b6001900381819060005260206000200160009055905550505050565b600061291883610e9d565b905081600660008573ffffffffffffffffffffffffffffffffffffffff1673ffffffffffffffffffffffffffffffffffffffff168152602001908152602001600020600083815260200190815260200160002081905550806007600084815260200190815260200160002081905550505050565b8280546129989061398c565b90600052602060002090601f0160209004810192826129ba5760008555612a01565b82601f106129d357805160ff1916838001178555612a01565b82800160010185558215612a01579182015b82811115612a005782518255916020019190600101906129e5565b5b509050612a0e9190612a12565b5090565b5b80821115612a2b576000816000905550600101612a13565b5090565b6000612a42612a3d84613742565b61371d565b905082815260208101848484011115612a5e57612a5d613b88565b5b612a6984828561394a565b509392505050565b600081359050612a8081614461565b92915050565b600081359050612a9581614478565b92915050565b600081359050612aaa8161448f565b92915050565b600081519050612abf8161448f565b92915050565b600082601f830112612ada57612ad9613b83565b5b8135612aea848260208601612a2f565b91505092915050565b600081359050612b02816144a6565b92915050565b600060208284031215612b1e57612b1d613b92565b5b6000612b2c84828501612a71565b91505092915050565b60008060408385031215612b4c57612b4b613b92565b5b6000612b5a85828601612a71565b9250506020612b6b85828601612a71565b9150509250929050565b600080600060608486031215612b8e57612b8d613b92565b5b6000612b9c86828701612a71565b9350506020612bad86828701612a71565b9250506040612bbe86828701612af3565b9150509250925092565b60008060008060808587031215612be257612be1613b92565b5b6000612bf087828801612a71565b9450506020612c0187828801612a71565b9350506040612c1287828801612af3565b925050606085013567ffffffffffffffff811115612c3357612c32613b8d565b5b612c3f87828801612ac5565b91505092959194509250565b60008060408385031215612c6257612c61613b92565b5b6000612c7085828601612a71565b9250506020612c8185828601612a86565b9150509250929050565b60008060408385031215612ca257612ca1613b92565b5b6000612cb085828601612a71565b9250506020612cc185828601612af3565b9150509250929050565b600060208284031215612ce157612ce0613b92565b5b6000612cef84828501612a9b565b91505092915050565b600060208284031215612d0e57612d0d613b92565b5b6000612d1c84828501612ab0565b91505092915050565b600060208284031215612d3b57612d3a613b92565b5b6000612d4984828501612af3565b91505092915050565b612d5b816138d6565b82525050565b612d6a816138e8565b82525050565b6000612d7b82613773565b612d858185613789565b9350612d95818560208601613959565b612d9e81613b97565b840191505092915050565b6000612db48261377e565b612dbe81856137a5565b9350612dce818560208601613959565b612dd781613b97565b840191505092915050565b6000612ded8261377e565b612df781856137b6565b9350612e07818560208601613959565b80840191505092915050565b6000612e206022836137b6565b9150612e2b82613ba8565b602282019050919050565b6000612e43602b836137a5565b9150612e4e82613bf7565b604082019050919050565b6000612e666032836137a5565b9150612e7182613c46565b604082019050919050565b6000612e896026836137a5565b9150612e9482613c95565b604082019050919050565b6000612eac6002836137b6565b9150612eb782613ce4565b600282019050919050565b6000612ecf6025836137a5565b9150612eda82613d0d565b604082019050919050565b6000612ef2601c836137a5565b9150612efd82613d5c565b602082019050919050565b6000612f156030836137b6565b9150612f2082613d85565b603082019050919050565b6000612f386062836137b6565b9150612f4382613dd4565b606282019050919050565b6000612f5b6018836137b6565b9150612f6682613e6f565b601882019050919050565b6000612f7e6008836137b6565b9150612f8982613e98565b600882019050919050565b6000612fa16024836137a5565b9150612fac82613ec1565b604082019050919050565b6000612fc46019836137a5565b9150612fcf82613f10565b602082019050919050565b6000612fe76053836137b6565b9150612ff282613f39565b605382019050919050565b600061300a6029836137a5565b915061301582613fae565b604082019050919050565b600061302d6001836137b6565b915061303882613ffd565b600182019050919050565b6000613050602e836137a5565b915061305b82614026565b604082019050919050565b60006130736007836137b6565b915061307e82614075565b600782019050919050565b60006130966007836137b6565b91506130a18261409e565b600782019050919050565b60006130b9603e836137a5565b91506130c4826140c7565b604082019050919050565b60006130dc6020836137a5565b91506130e782614116565b602082019050919050565b60006130ff6001836137b6565b915061310a8261413f565b600182019050919050565b60006131226020836137a5565b915061312d82614168565b602082019050919050565b60006131456001836137b6565b915061315082614191565b600182019050919050565b60006131686018836137a5565b9150613173826141ba565b602082019050919050565b600061318b6021836137a5565b9150613196826141e3565b604082019050919050565b60006131ae604a836137b6565b91506131b982614232565b604a82019050919050565b60006131d1601d836137b6565b91506131dc826142a7565b601d82019050919050565b60006131f46053836137b6565b91506131ff826142d0565b605382019050919050565b600061321760008361379a565b915061322282614345565b600082019050919050565b600061323a602c836137a5565b915061324582614348565b604082019050919050565b600061325d600a836137b6565b915061326882614397565b600a82019050919050565b6000613280602e836137a5565b915061328b826143c0565b604082019050919050565b60006132a36006836137b6565b91506132ae8261440f565b600682019050919050565b60006132c6601a836137b6565b91506132d182614438565b601a82019050919050565b6132e581613940565b82525050565b60006132f78285612de2565b91506133038284612de2565b91508190509392505050565b600061331a82612f2b565b9150613325826131a1565b915061333082612f08565b915061333b82612fda565b915061334682613066565b915061335182613089565b915061335c826131e7565b915061336782612f71565b91506133738284612de2565b915061337e82613089565b915061338982613296565b915081905092915050565b600061339f82613138565b91506133aa82612f4e565b91506133b68285612de2565b91506133c182612e9f565b91506133cc82612e13565b91506133d782613250565b91506133e38284612de2565b91506133ee82613020565b91506133f9826130f2565b91508190509392505050565b6000613410826131c4565b915061341c8284612de2565b915081905092915050565b60006134328261320a565b9150819050919050565b6000613447826132b9565b91506134538284612de2565b915081905092915050565b60006020820190506134736000830184612d52565b92915050565b600060808201905061348e6000830187612d52565b61349b6020830186612d52565b6134a860408301856132dc565b81810360608301526134ba8184612d70565b905095945050505050565b60006020820190506134da6000830184612d61565b92915050565b600060208201905081810360008301526134fa8184612da9565b905092915050565b6000602082019050818103600083015261351b81612e36565b9050919050565b6000602082019050818103600083015261353b81612e59565b9050919050565b6000602082019050818103600083015261355b81612e7c565b9050919050565b6000602082019050818103600083015261357b81612ec2565b9050919050565b6000602082019050818103600083015261359b81612ee5565b9050919050565b600060208201905081810360008301526135bb81612f94565b9050919050565b600060208201905081810360008301526135db81612fb7565b9050919050565b600060208201905081810360008301526135fb81612ffd565b9050919050565b6000602082019050818103600083015261361b81613043565b9050919050565b6000602082019050818103600083015261363b816130ac565b9050919050565b6000602082019050818103600083015261365b816130cf565b9050919050565b6000602082019050818103600083015261367b81613115565b9050919050565b6000602082019050818103600083015261369b8161315b565b9050919050565b600060208201905081810360008301526136bb8161317e565b9050919050565b600060208201905081810360008301526136db8161322d565b9050919050565b600060208201905081810360008301526136fb81613273565b9050919050565b600060208201905061371760008301846132dc565b92915050565b6000613727613738565b905061373382826139be565b919050565b6000604051905090565b600067ffffffffffffffff82111561375d5761375c613b54565b5b61376682613b97565b9050602081019050919050565b600081519050919050565b600081519050919050565b600082825260208201905092915050565b600081905092915050565b600082825260208201905092915050565b600081905092915050565b60006137cc82613940565b91506137d783613940565b9250827fffffffffffffffffffffffffffffffffffffffffffffffffffffffffffffffff0382111561380c5761380b613a69565b5b828201905092915050565b600061382282613940565b915061382d83613940565b92508261383d5761383c613a98565b5b828204905092915050565b600061385382613940565b915061385e83613940565b9250817fffffffffffffffffffffffffffffffffffffffffffffffffffffffffffffffff048311821515161561389757613896613a69565b5b828202905092915050565b60006138ad82613940565b91506138b883613940565b9250828210156138cb576138ca613a69565b5b828203905092915050565b60006138e182613920565b9050919050565b60008115159050919050565b60007fffffffff0000000000000000000000000000000000000000000000000000000082169050919050565b600073ffffffffffffffffffffffffffffffffffffffff82169050919050565b6000819050919050565b82818337600083830152505050565b60005b8381101561397757808201518184015260208101905061395c565b83811115613986576000848401525b50505050565b600060028204905060018216806139a457607f821691505b602082108114156139b8576139b7613ac7565b5b50919050565b6139c782613b97565b810181811067ffffffffffffffff821117156139e6576139e5613b54565b5b80604052505050565b60006139fa82613940565b91507fffffffffffffffffffffffffffffffffffffffffffffffffffffffffffffffff821415613a2d57613a2c613a69565b5b600182019050919050565b6000613a4382613940565b9150613a4e83613940565b925082613a5e57613a5d613a98565b5b828206905092915050565b7f4e487b7100000000000000000000000000000000000000000000000000000000600052601160045260246000fd5b7f4e487b7100000000000000000000000000000000000000000000000000000000600052601260045260246000fd5b7f4e487b7100000000000000000000000000000000000000000000000000000000600052602260045260246000fd5b7f4e487b7100000000000000000000000000000000000000000000000000000000600052603160045260246000fd5b7f4e487b7100000000000000000000000000000000000000000000000000000000600052603260045260246000fd5b7f4e487b7100000000000000000000000000000000000000000000000000000000600052604160045260246000fd5b600080fd5b600080fd5b600080fd5b600080fd5b6000601f19601f8301169050919050565b7f226465736372697074696f6e223a2022426174746c6573206f6e20636861696e60008201527f222c000000000000000000000000000000000000000000000000000000000000602082015250565b7f455243373231456e756d657261626c653a206f776e657220696e646578206f7560008201527f74206f6620626f756e6473000000000000000000000000000000000000000000602082015250565b7f4552433732313a207472616e7366657220746f206e6f6e20455243373231526560008201527f63656976657220696d706c656d656e7465720000000000000000000000000000602082015250565b7f4f776e61626c653a206e6577206f776e657220697320746865207a65726f206160008201527f6464726573730000000000000000000000000000000000000000000000000000602082015250565b7f222c000000000000000000000000000000000000000000000000000000000000600082015250565b7f4552433732313a207472616e736665722066726f6d20696e636f72726563742060008201527f6f776e6572000000000000000000000000000000000000000000000000000000602082015250565b7f4552433732313a20746f6b656e20616c7265616479206d696e74656400000000600082015250565b7f3c726563742077696474683d223130302522206865696768743d22313030252260008201527f2066696c6c3d22626c61636b22202f3e00000000000000000000000000000000602082015250565b7f3c73766720786d6c6e733d22687474703a2f2f7777772e77332e6f72672f323060008201527f30302f73766722207072657365727665417370656374526174696f3d22784d6960208201527f6e594d696e206d656574222076696577426f783d22302030203335302033353060408201527f223e000000000000000000000000000000000000000000000000000000000000606082015250565b7f226e616d65223a2022436861696e20426174746c657320230000000000000000600082015250565b7f4c6576656c733a20000000000000000000000000000000000000000000000000600082015250565b7f4552433732313a207472616e7366657220746f20746865207a65726f2061646460008201527f7265737300000000000000000000000000000000000000000000000000000000602082015250565b7f4552433732313a20617070726f766520746f2063616c6c657200000000000000600082015250565b7f3c7465787420783d223530252220793d223430252220636c6173733d2262617360008201527f652220646f6d696e616e742d626173656c696e653d226d6964646c652220746560208201527f78742d616e63686f723d226d6964646c65223e00000000000000000000000000604082015250565b7f4552433732313a2061646472657373207a65726f206973206e6f74206120766160008201527f6c6964206f776e65720000000000000000000000000000000000000000000000602082015250565b7f2200000000000000000000000000000000000000000000000000000000000000600082015250565b7f45524337323155524953746f726167653a2055524920736574206f66206e6f6e60008201527f6578697374656e7420746f6b656e000000000000000000000000000000000000602082015250565b7f57617272696f7200000000000000000000000000000000000000000000000000600082015250565b7f3c2f746578743e00000000000000000000000000000000000000000000000000600082015250565b7f4552433732313a20617070726f76652063616c6c6572206973206e6f7420746f60008201527f6b656e206f776e6572206e6f7220617070726f76656420666f7220616c6c0000602082015250565b7f4552433732313a206d696e7420746f20746865207a65726f2061646472657373600082015250565b7f7d00000000000000000000000000000000000000000000000000000000000000600082015250565b7f4f776e61626c653a2063616c6c6572206973206e6f7420746865206f776e6572600082015250565b7f7b00000000000000000000000000000000000000000000000000000000000000600082015250565b7f4552433732313a20696e76616c696420746f6b656e2049440000000000000000600082015250565b7f4552433732313a20617070726f76616c20746f2063757272656e74206f776e6560008201527f7200000000000000000000000000000000000000000000000000000000000000602082015250565b7f3c7374796c653e2e62617365207b2066696c6c3a2077686974653b20666f6e7460008201527f2d66616d696c793a2073657269663b20666f6e742d73697a653a20313470783b60208201527f207d3c2f7374796c653e00000000000000000000000000000000000000000000604082015250565b7f646174613a6170706c69636174696f6e2f6a736f6e3b6261736536342c000000600082015250565b7f3c7465787420783d223530252220793d223530252220636c6173733d2262617360008201527f652220646f6d696e616e742d626173656c696e653d226d6964646c652220746560208201527f78742d616e63686f723d226d6964646c65223e00000000000000000000000000604082015250565b50565b7f455243373231456e756d657261626c653a20676c6f62616c20696e646578206f60008201527f7574206f6620626f756e64730000000000000000000000000000000000000000602082015250565b7f22696d616765223a202200000000000000000000000000000000000000000000600082015250565b7f4552433732313a2063616c6c6572206973206e6f7420746f6b656e206f776e6560008201527f72206e6f7220617070726f766564000000000000000000000000000000000000602082015250565b7f3c2f7376673e0000000000000000000000000000000000000000000000000000600082015250565b7f646174613a696d6167652f7376672b786d6c3b6261736536342c000000000000600082015250565b61446a816138d6565b811461447557600080fd5b50565b614481816138e8565b811461448c57600080fd5b50565b614498816138f4565b81146144a357600080fd5b50565b6144af81613940565b81146144ba57600080fd5b5056fe4142434445464748494a4b4c4d4e4f505152535455565758595a6162636465666768696a6b6c6d6e6f707172737475767778797a303132333435363738392b2fa2646970667358221220ba20a86116206ea43b69486be9d2e5fa8739a77914068810ff1a7f71d65a326a64736f6c63430008070033",
  "devdoc": {
    "kind": "dev",
    "methods": {
      "approve(address,uint256)": {
        "details": "See {IERC721-approve}."
      },
      "balanceOf(address)": {
        "details": "See {IERC721-balanceOf}."
      },
      "getApproved(uint256)": {
        "details": "See {IERC721-getApproved}."
      },
      "isApprovedForAll(address,address)": {
        "details": "See {IERC721-isApprovedForAll}."
      },
      "name()": {
        "details": "See {IERC721Metadata-name}."
      },
      "owner()": {
        "details": "Returns the address of the current owner."
      },
      "ownerOf(uint256)": {
        "details": "See {IERC721-ownerOf}."
      },
      "renounceOwnership()": {
        "details": "Leaves the contract without owner. It will not be possible to call `onlyOwner` functions anymore. Can only be called by the current owner. NOTE: Renouncing ownership will leave the contract without an owner, thereby removing any functionality that is only available to the owner."
      },
      "safeTransferFrom(address,address,uint256)": {
        "details": "See {IERC721-safeTransferFrom}."
      },
      "safeTransferFrom(address,address,uint256,bytes)": {
        "details": "See {IERC721-safeTransferFrom}."
      },
      "setApprovalForAll(address,bool)": {
        "details": "See {IERC721-setApprovalForAll}."
      },
      "symbol()": {
        "details": "See {IERC721Metadata-symbol}."
      },
      "tokenByIndex(uint256)": {
        "details": "See {IERC721Enumerable-tokenByIndex}."
      },
      "tokenOfOwnerByIndex(address,uint256)": {
        "details": "See {IERC721Enumerable-tokenOfOwnerByIndex}."
      },
      "totalSupply()": {
        "details": "See {IERC721Enumerable-totalSupply}."
      },
      "transferFrom(address,address,uint256)": {
        "details": "See {IERC721-transferFrom}."
      },
      "transferOwnership(address)": {
        "details": "Transfers ownership of the contract to a new account (`newOwner`). Can only be called by the current owner."
      }
    },
    "version": 1
  },
  "userdoc": {
    "kind": "user",
    "methods": {},
    "version": 1
  },
  "storageLayout": {
    "storage": [
      {
        "astId": 138,
        "contract": "contracts/ChainBattles.sol:ChainBattles",
        "label": "_name",
        "offset": 0,
        "slot": "0",
        "type": "t_string_storage"
      },
      {
        "astId": 140,
        "contract": "contracts/ChainBattles.sol:ChainBattles",
        "label": "_symbol",
        "offset": 0,
        "slot": "1",
        "type": "t_string_storage"
      },
      {
        "astId": 144,
        "contract": "contracts/ChainBattles.sol:ChainBattles",
        "label": "_owners",
        "offset": 0,
        "slot": "2",
        "type": "t_mapping(t_uint256,t_address)"
      },
      {
        "astId": 148,
        "contract": "contracts/ChainBattles.sol:ChainBattles",
        "label": "_balances",
        "offset": 0,
        "slot": "3",
        "type": "t_mapping(t_address,t_uint256)"
      },
      {
        "astId": 152,
        "contract": "contracts/ChainBattles.sol:ChainBattles",
        "label": "_tokenApprovals",
        "offset": 0,
        "slot": "4",
        "type": "t_mapping(t_uint256,t_address)"
      },
      {
        "astId": 158,
        "contract": "contracts/ChainBattles.sol:ChainBattles",
        "label": "_operatorApprovals",
        "offset": 0,
        "slot": "5",
        "type": "t_mapping(t_address,t_mapping(t_address,t_bool))"
      },
      {
        "astId": 1128,
        "contract": "contracts/ChainBattles.sol:ChainBattles",
        "label": "_ownedTokens",
        "offset": 0,
        "slot": "6",
        "type": "t_mapping(t_address,t_mapping(t_uint256,t_uint256))"
      },
      {
        "astId": 1132,
        "contract": "contracts/ChainBattles.sol:ChainBattles",
        "label": "_ownedTokensIndex",
        "offset": 0,
        "slot": "7",
        "type": "t_mapping(t_uint256,t_uint256)"
      },
      {
        "astId": 1135,
        "contract": "contracts/ChainBattles.sol:ChainBattles",
        "label": "_allTokens",
        "offset": 0,
        "slot": "8",
        "type": "t_array(t_uint256)dyn_storage"
      },
      {
        "astId": 1139,
        "contract": "contracts/ChainBattles.sol:ChainBattles",
        "label": "_allTokensIndex",
        "offset": 0,
        "slot": "9",
        "type": "t_mapping(t_uint256,t_uint256)"
      },
      {
        "astId": 1464,
        "contract": "contracts/ChainBattles.sol:ChainBattles",
        "label": "_tokenURIs",
        "offset": 0,
        "slot": "10",
        "type": "t_mapping(t_uint256,t_string_storage)"
      },
      {
        "astId": 7,
        "contract": "contracts/ChainBattles.sol:ChainBattles",
        "label": "_owner",
        "offset": 0,
        "slot": "11",
        "type": "t_address"
      },
      {
        "astId": 2374,
        "contract": "contracts/ChainBattles.sol:ChainBattles",
        "label": "s_withdrawalAddress",
        "offset": 0,
        "slot": "12",
        "type": "t_address_payable"
      },
      {
        "astId": 2377,
        "contract": "contracts/ChainBattles.sol:ChainBattles",
        "label": "s_tokenIds",
        "offset": 0,
        "slot": "13",
        "type": "t_struct(Counter)2004_storage"
      },
      {
        "astId": 2381,
        "contract": "contracts/ChainBattles.sol:ChainBattles",
        "label": "s_tokenIdToLevels",
        "offset": 0,
        "slot": "14",
        "type": "t_mapping(t_uint256,t_uint256)"
      }
    ],
    "types": {
      "t_address": {
        "encoding": "inplace",
        "label": "address",
        "numberOfBytes": "20"
      },
      "t_address_payable": {
        "encoding": "inplace",
        "label": "address payable",
        "numberOfBytes": "20"
      },
      "t_array(t_uint256)dyn_storage": {
        "base": "t_uint256",
        "encoding": "dynamic_array",
        "label": "uint256[]",
        "numberOfBytes": "32"
      },
      "t_bool": {
        "encoding": "inplace",
        "label": "bool",
        "numberOfBytes": "1"
      },
      "t_mapping(t_address,t_bool)": {
        "encoding": "mapping",
        "key": "t_address",
        "label": "mapping(address => bool)",
        "numberOfBytes": "32",
        "value": "t_bool"
      },
      "t_mapping(t_address,t_mapping(t_address,t_bool))": {
        "encoding": "mapping",
        "key": "t_address",
        "label": "mapping(address => mapping(address => bool))",
        "numberOfBytes": "32",
        "value": "t_mapping(t_address,t_bool)"
      },
      "t_mapping(t_address,t_mapping(t_uint256,t_uint256))": {
        "encoding": "mapping",
        "key": "t_address",
        "label": "mapping(address => mapping(uint256 => uint256))",
        "numberOfBytes": "32",
        "value": "t_mapping(t_uint256,t_uint256)"
      },
      "t_mapping(t_address,t_uint256)": {
        "encoding": "mapping",
        "key": "t_address",
        "label": "mapping(address => uint256)",
        "numberOfBytes": "32",
        "value": "t_uint256"
      },
      "t_mapping(t_uint256,t_address)": {
        "encoding": "mapping",
        "key": "t_uint256",
        "label": "mapping(uint256 => address)",
        "numberOfBytes": "32",
        "value": "t_address"
      },
      "t_mapping(t_uint256,t_string_storage)": {
        "encoding": "mapping",
        "key": "t_uint256",
        "label": "mapping(uint256 => string)",
        "numberOfBytes": "32",
        "value": "t_string_storage"
      },
      "t_mapping(t_uint256,t_uint256)": {
        "encoding": "mapping",
        "key": "t_uint256",
        "label": "mapping(uint256 => uint256)",
        "numberOfBytes": "32",
        "value": "t_uint256"
      },
      "t_string_storage": {
        "encoding": "bytes",
        "label": "string",
        "numberOfBytes": "32"
      },
      "t_struct(Counter)2004_storage": {
        "encoding": "inplace",
        "label": "struct Counters.Counter",
        "members": [
          {
            "astId": 2003,
            "contract": "contracts/ChainBattles.sol:ChainBattles",
            "label": "_value",
            "offset": 0,
            "slot": "0",
            "type": "t_uint256"
          }
        ],
        "numberOfBytes": "32"
      },
      "t_uint256": {
        "encoding": "inplace",
        "label": "uint256",
        "numberOfBytes": "32"
      }
    }
  }
}